{
  "contractName": "Counter",
  "abi": [
    {
      "inputs": [],
      "stateMutability": "nonpayable",
      "type": "constructor"
    },
    {
      "anonymous": false,
      "inputs": [
        {
          "indexed": false,
          "internalType": "uint256",
          "name": "currentValue",
          "type": "uint256"
        },
        {
          "indexed": true,
          "internalType": "address",
          "name": "sender",
          "type": "address"
        }
      ],
      "name": "Decrement",
      "type": "event"
    },
    {
      "anonymous": false,
      "inputs": [
        {
          "indexed": false,
          "internalType": "uint256",
          "name": "currentValue",
          "type": "uint256"
        },
        {
          "indexed": true,
          "internalType": "address",
          "name": "sender",
          "type": "address"
        }
      ],
      "name": "Increment",
      "type": "event"
    },
    {
      "inputs": [],
      "name": "counter",
      "outputs": [
        {
          "internalType": "uint256",
          "name": "",
          "type": "uint256"
        }
      ],
      "stateMutability": "view",
      "type": "function",
      "constant": true
    },
    {
      "inputs": [],
      "name": "increment",
      "outputs": [],
      "stateMutability": "nonpayable",
      "type": "function"
    },
    {
      "inputs": [],
      "name": "decrement",
      "outputs": [],
      "stateMutability": "nonpayable",
      "type": "function"
    }
  ],
  "bytecode": "0x608060405234801561001057600080fd5b506000808190555061025c806100276000396000f3fe608060405234801561001057600080fd5b50600436106100415760003560e01c80632baeceb71461004657806361bc221a14610050578063d09de08a1461006e575b600080fd5b61004e610078565b005b6100586100e1565b604051610065919061015f565b60405180910390f35b6100766100e7565b005b60008081548092919061008a90610184565b91905055503373ffffffffffffffffffffffffffffffffffffffff167f02d09e9b1f468a0250a4c3af35f6be43ab0a46302c4160d8fb259440d4fe37ca6000546040516100d7919061015f565b60405180910390a2565b60005481565b6000808154809291906100f9906101ae565b91905055503373ffffffffffffffffffffffffffffffffffffffff167f04b3522d7223b6ca3966d7b8e6987b92072f14761d7c6d3d6fb653defbae11b6600054604051610146919061015f565b60405180910390a2565b6101598161017a565b82525050565b60006020820190506101746000830184610150565b92915050565b6000819050919050565b600061018f8261017a565b915060008214156101a3576101a26101f7565b5b600182039050919050565b60006101b98261017a565b91507fffffffffffffffffffffffffffffffffffffffffffffffffffffffffffffffff8214156101ec576101eb6101f7565b5b600182019050919050565b7f4e487b7100000000000000000000000000000000000000000000000000000000600052601160045260246000fdfea26469706673582212208f00dcdd71b01e257ef0fb70c6d0514aafa883fe624f5ed72c560556751f971a64736f6c63430008060033",
  "immutableReferences": {},
  "source": "// SPDX-License-Identifier: MIT\npragma solidity ^0.8.0;\n\n\n\n\ncontract Counter {\n  uint256 public counter;\n\n  event Increment(uint currentValue, address indexed sender);\n  event Decrement(uint currentValue, address indexed sender);\n\n  constructor(){\n    counter = 0;\n  }\n\n  function increment() public {\n    counter++;\n    emit Increment(counter, msg.sender);\n  }\n  \n  function decrement() public {\n      counter--;\n      emit Decrement(counter, msg.sender);\n  }\n \n\n\n}\n",
  "sourcePath": "D:/00-Mundo Digital/codigo/Learning/Javascript/reactiu/web3learn/contracts/Counter.sol",
  "compiler": {
    "name": "solc",
    "version": "0.8.6+commit.11564f7e.Emscripten.clang"
  },
  "schemaVersion": "3.4.1",
  "updatedAt": "2021-12-03T18:30:37.578Z",
  "networkType": "ethereum",
  "devdoc": {
    "kind": "dev",
    "methods": {},
    "version": 1
  },
  "userdoc": {
    "kind": "user",
    "methods": {},
    "version": 1
  }
}