{
  "contractName": "Ismatoken",
  "abi": [
    {
      "inputs": [],
      "stateMutability": "nonpayable",
      "type": "constructor"
    },
    {
      "anonymous": false,
      "inputs": [
        {
          "indexed": true,
          "internalType": "address",
          "name": "owner",
          "type": "address"
        },
        {
          "indexed": true,
          "internalType": "address",
          "name": "approved",
          "type": "address"
        },
        {
          "indexed": true,
          "internalType": "uint256",
          "name": "tokenId",
          "type": "uint256"
        }
      ],
      "name": "Approval",
      "type": "event"
    },
    {
      "anonymous": false,
      "inputs": [
        {
          "indexed": true,
          "internalType": "address",
          "name": "owner",
          "type": "address"
        },
        {
          "indexed": true,
          "internalType": "address",
          "name": "operator",
          "type": "address"
        },
        {
          "indexed": false,
          "internalType": "bool",
          "name": "approved",
          "type": "bool"
        }
      ],
      "name": "ApprovalForAll",
      "type": "event"
    },
    {
      "anonymous": false,
      "inputs": [
        {
          "indexed": true,
          "internalType": "address",
          "name": "previousOwner",
          "type": "address"
        },
        {
          "indexed": true,
          "internalType": "address",
          "name": "newOwner",
          "type": "address"
        }
      ],
      "name": "OwnershipTransferred",
      "type": "event"
    },
    {
      "anonymous": false,
      "inputs": [
        {
          "indexed": true,
          "internalType": "address",
          "name": "from",
          "type": "address"
        },
        {
          "indexed": true,
          "internalType": "address",
          "name": "to",
          "type": "address"
        },
        {
          "indexed": true,
          "internalType": "uint256",
          "name": "tokenId",
          "type": "uint256"
        }
      ],
      "name": "Transfer",
      "type": "event"
    },
    {
      "inputs": [
        {
          "internalType": "address",
          "name": "to",
          "type": "address"
        },
        {
          "internalType": "uint256",
          "name": "tokenId",
          "type": "uint256"
        }
      ],
      "name": "approve",
      "outputs": [],
      "stateMutability": "nonpayable",
      "type": "function"
    },
    {
      "inputs": [
        {
          "internalType": "address",
          "name": "owner",
          "type": "address"
        }
      ],
      "name": "balanceOf",
      "outputs": [
        {
          "internalType": "uint256",
          "name": "",
          "type": "uint256"
        }
      ],
      "stateMutability": "view",
      "type": "function",
      "constant": true
    },
    {
      "inputs": [
        {
          "internalType": "uint256",
          "name": "tokenId",
          "type": "uint256"
        }
      ],
      "name": "getApproved",
      "outputs": [
        {
          "internalType": "address",
          "name": "",
          "type": "address"
        }
      ],
      "stateMutability": "view",
      "type": "function",
      "constant": true
    },
    {
      "inputs": [
        {
          "internalType": "address",
          "name": "owner",
          "type": "address"
        },
        {
          "internalType": "address",
          "name": "operator",
          "type": "address"
        }
      ],
      "name": "isApprovedForAll",
      "outputs": [
        {
          "internalType": "bool",
          "name": "",
          "type": "bool"
        }
      ],
      "stateMutability": "view",
      "type": "function",
      "constant": true
    },
    {
      "inputs": [],
      "name": "name",
      "outputs": [
        {
          "internalType": "string",
          "name": "",
          "type": "string"
        }
      ],
      "stateMutability": "view",
      "type": "function",
      "constant": true
    },
    {
      "inputs": [],
      "name": "owner",
      "outputs": [
        {
          "internalType": "address",
          "name": "",
          "type": "address"
        }
      ],
      "stateMutability": "view",
      "type": "function",
      "constant": true
    },
    {
      "inputs": [
        {
          "internalType": "uint256",
          "name": "tokenId",
          "type": "uint256"
        }
      ],
      "name": "ownerOf",
      "outputs": [
        {
          "internalType": "address",
          "name": "",
          "type": "address"
        }
      ],
      "stateMutability": "view",
      "type": "function",
      "constant": true
    },
    {
      "inputs": [],
      "name": "renounceOwnership",
      "outputs": [],
      "stateMutability": "nonpayable",
      "type": "function"
    },
    {
      "inputs": [
        {
          "internalType": "address",
          "name": "from",
          "type": "address"
        },
        {
          "internalType": "address",
          "name": "to",
          "type": "address"
        },
        {
          "internalType": "uint256",
          "name": "tokenId",
          "type": "uint256"
        }
      ],
      "name": "safeTransferFrom",
      "outputs": [],
      "stateMutability": "nonpayable",
      "type": "function"
    },
    {
      "inputs": [
        {
          "internalType": "address",
          "name": "from",
          "type": "address"
        },
        {
          "internalType": "address",
          "name": "to",
          "type": "address"
        },
        {
          "internalType": "uint256",
          "name": "tokenId",
          "type": "uint256"
        },
        {
          "internalType": "bytes",
          "name": "_data",
          "type": "bytes"
        }
      ],
      "name": "safeTransferFrom",
      "outputs": [],
      "stateMutability": "nonpayable",
      "type": "function"
    },
    {
      "inputs": [
        {
          "internalType": "address",
          "name": "operator",
          "type": "address"
        },
        {
          "internalType": "bool",
          "name": "approved",
          "type": "bool"
        }
      ],
      "name": "setApprovalForAll",
      "outputs": [],
      "stateMutability": "nonpayable",
      "type": "function"
    },
    {
      "inputs": [
        {
          "internalType": "bytes4",
          "name": "interfaceId",
          "type": "bytes4"
        }
      ],
      "name": "supportsInterface",
      "outputs": [
        {
          "internalType": "bool",
          "name": "",
          "type": "bool"
        }
      ],
      "stateMutability": "view",
      "type": "function",
      "constant": true
    },
    {
      "inputs": [],
      "name": "symbol",
      "outputs": [
        {
          "internalType": "string",
          "name": "",
          "type": "string"
        }
      ],
      "stateMutability": "view",
      "type": "function",
      "constant": true
    },
    {
      "inputs": [
        {
          "internalType": "address",
          "name": "from",
          "type": "address"
        },
        {
          "internalType": "address",
          "name": "to",
          "type": "address"
        },
        {
          "internalType": "uint256",
          "name": "tokenId",
          "type": "uint256"
        }
      ],
      "name": "transferFrom",
      "outputs": [],
      "stateMutability": "nonpayable",
      "type": "function"
    },
    {
      "inputs": [
        {
          "internalType": "address",
          "name": "newOwner",
          "type": "address"
        }
      ],
      "name": "transferOwnership",
      "outputs": [],
      "stateMutability": "nonpayable",
      "type": "function"
    },
    {
      "inputs": [
        {
          "internalType": "address",
          "name": "to",
          "type": "address"
        },
        {
          "internalType": "string",
          "name": "uri",
          "type": "string"
        }
      ],
      "name": "safeMint",
      "outputs": [],
      "stateMutability": "nonpayable",
      "type": "function"
    },
    {
      "inputs": [],
      "name": "totalMinted",
      "outputs": [
        {
          "internalType": "uint256",
          "name": "total",
          "type": "uint256"
        }
      ],
      "stateMutability": "view",
      "type": "function",
      "constant": true
    },
    {
      "inputs": [
        {
          "internalType": "uint256",
          "name": "tokenId",
          "type": "uint256"
        }
      ],
      "name": "tokenURI",
      "outputs": [
        {
          "internalType": "string",
          "name": "",
          "type": "string"
        }
      ],
      "stateMutability": "view",
      "type": "function",
      "constant": true
    }
  ],
  "bytecode": "0x60806040523480156200001157600080fd5b506040518060400160405280600981526020017f69736d61746f6b656e00000000000000000000000000000000000000000000008152506040518060400160405280600481526020017f69736d6100000000000000000000000000000000000000000000000000000000815250816000908051906020019062000096929190620001a6565b508060019080519060200190620000af929190620001a6565b505050620000d2620000c6620000d860201b60201c565b620000e060201b60201c565b620002bb565b600033905090565b6000600760009054906101000a900473ffffffffffffffffffffffffffffffffffffffff16905081600760006101000a81548173ffffffffffffffffffffffffffffffffffffffff021916908373ffffffffffffffffffffffffffffffffffffffff1602179055508173ffffffffffffffffffffffffffffffffffffffff168173ffffffffffffffffffffffffffffffffffffffff167f8be0079c531659141344cd1fd0a4f28419497f9722a3daafe3b4186f6b6457e060405160405180910390a35050565b828054620001b49062000256565b90600052602060002090601f016020900481019282620001d8576000855562000224565b82601f10620001f357805160ff191683800117855562000224565b8280016001018555821562000224579182015b828111156200022357825182559160200191906001019062000206565b5b50905062000233919062000237565b5090565b5b808211156200025257600081600090555060010162000238565b5090565b600060028204905060018216806200026f57607f821691505b602082108114156200028657620002856200028c565b5b50919050565b7f4e487b7100000000000000000000000000000000000000000000000000000000600052602260045260246000fd5b61309c80620002cb6000396000f3fe608060405234801561001057600080fd5b50600436106101165760003560e01c80638da5cb5b116100a2578063b88d4fde11610071578063b88d4fde146102cd578063c87b56dd146102e9578063d204c45e14610319578063e985e9c514610335578063f2fde38b1461036557610116565b80638da5cb5b1461025757806395d89b4114610275578063a22cb46514610293578063a2309ff8146102af57610116565b806323b872dd116100e957806323b872dd146101b557806342842e0e146101d15780636352211e146101ed57806370a082311461021d578063715018a61461024d57610116565b806301ffc9a71461011b57806306fdde031461014b578063081812fc14610169578063095ea7b314610199575b600080fd5b61013560048036038101906101309190611ffc565b610381565b6040516101429190612454565b60405180910390f35b610153610463565b604051610160919061246f565b60405180910390f35b610183600480360381019061017e9190612056565b6104f5565b60405161019091906123ed565b60405180910390f35b6101b360048036038101906101ae9190611fbc565b61057a565b005b6101cf60048036038101906101ca9190611e4a565b610692565b005b6101eb60048036038101906101e69190611e4a565b6106f2565b005b61020760048036038101906102029190612056565b610712565b60405161021491906123ed565b60405180910390f35b61023760048036038101906102329190611ddd565b6107c4565b60405161024491906126d1565b60405180910390f35b61025561087c565b005b61025f610904565b60405161026c91906123ed565b60405180910390f35b61027d61092e565b60405161028a919061246f565b60405180910390f35b6102ad60048036038101906102a89190611f20565b6109c0565b005b6102b7610b41565b6040516102c491906126d1565b60405180910390f35b6102e760048036038101906102e29190611e9d565b610b52565b005b61030360048036038101906102fe9190612056565b610bb4565b604051610310919061246f565b60405180910390f35b610333600480360381019061032e9190611f60565b610bc6565b005b61034f600480360381019061034a9190611e0a565b610c73565b60405161035c9190612454565b60405180910390f35b61037f600480360381019061037a9190611ddd565b610d07565b005b60007f80ac58cd000000000000000000000000000000000000000000000000000000007bffffffffffffffffffffffffffffffffffffffffffffffffffffffff1916827bffffffffffffffffffffffffffffffffffffffffffffffffffffffff1916148061044c57507f5b5e139f000000000000000000000000000000000000000000000000000000007bffffffffffffffffffffffffffffffffffffffffffffffffffffffff1916827bffffffffffffffffffffffffffffffffffffffffffffffffffffffff1916145b8061045c575061045b82610dff565b5b9050919050565b60606000805461047290612927565b80601f016020809104026020016040519081016040528092919081815260200182805461049e90612927565b80156104eb5780601f106104c0576101008083540402835291602001916104eb565b820191906000526020600020905b8154815290600101906020018083116104ce57829003601f168201915b5050505050905090565b600061050082610e69565b61053f576040517f08c379a000000000000000000000000000000000000000000000000000000000815260040161053690612611565b60405180910390fd5b6004600083815260200190815260200160002060009054906101000a900473ffffffffffffffffffffffffffffffffffffffff169050919050565b600061058582610712565b90508073ffffffffffffffffffffffffffffffffffffffff168373ffffffffffffffffffffffffffffffffffffffff1614156105f6576040517f08c379a00000000000000000000000000000000000000000000000000000000081526004016105ed90612691565b60405180910390fd5b8073ffffffffffffffffffffffffffffffffffffffff16610615610ed5565b73ffffffffffffffffffffffffffffffffffffffff16148061064457506106438161063e610ed5565b610c73565b5b610683576040517f08c379a000000000000000000000000000000000000000000000000000000000815260040161067a90612551565b60405180910390fd5b61068d8383610edd565b505050565b6106a361069d610ed5565b82610f96565b6106e2576040517f08c379a00000000000000000000000000000000000000000000000000000000081526004016106d9906126b1565b60405180910390fd5b6106ed838383611074565b505050565b61070d83838360405180602001604052806000815250610b52565b505050565b6000806002600084815260200190815260200160002060009054906101000a900473ffffffffffffffffffffffffffffffffffffffff169050600073ffffffffffffffffffffffffffffffffffffffff168173ffffffffffffffffffffffffffffffffffffffff1614156107bb576040517f08c379a00000000000000000000000000000000000000000000000000000000081526004016107b290612591565b60405180910390fd5b80915050919050565b60008073ffffffffffffffffffffffffffffffffffffffff168273ffffffffffffffffffffffffffffffffffffffff161415610835576040517f08c379a000000000000000000000000000000000000000000000000000000000815260040161082c90612571565b60405180910390fd5b600360008373ffffffffffffffffffffffffffffffffffffffff1673ffffffffffffffffffffffffffffffffffffffff168152602001908152602001600020549050919050565b610884610ed5565b73ffffffffffffffffffffffffffffffffffffffff166108a2610904565b73ffffffffffffffffffffffffffffffffffffffff16146108f8576040517f08c379a00000000000000000000000000000000000000000000000000000000081526004016108ef90612631565b60405180910390fd5b61090260006112d0565b565b6000600760009054906101000a900473ffffffffffffffffffffffffffffffffffffffff16905090565b60606001805461093d90612927565b80601f016020809104026020016040519081016040528092919081815260200182805461096990612927565b80156109b65780601f1061098b576101008083540402835291602001916109b6565b820191906000526020600020905b81548152906001019060200180831161099957829003601f168201915b5050505050905090565b6109c8610ed5565b73ffffffffffffffffffffffffffffffffffffffff168273ffffffffffffffffffffffffffffffffffffffff161415610a36576040517f08c379a0000000000000000000000000000000000000000000000000000000008152600401610a2d90612511565b60405180910390fd5b8060056000610a43610ed5565b73ffffffffffffffffffffffffffffffffffffffff1673ffffffffffffffffffffffffffffffffffffffff16815260200190815260200160002060008473ffffffffffffffffffffffffffffffffffffffff1673ffffffffffffffffffffffffffffffffffffffff16815260200190815260200160002060006101000a81548160ff0219169083151502179055508173ffffffffffffffffffffffffffffffffffffffff16610af0610ed5565b73ffffffffffffffffffffffffffffffffffffffff167f17307eab39ab6107e8899845ad3d59bd9653f200f220920489ca2b5937696c3183604051610b359190612454565b60405180910390a35050565b6000610b4d6008611396565b905090565b610b63610b5d610ed5565b83610f96565b610ba2576040517f08c379a0000000000000000000000000000000000000000000000000000000008152600401610b99906126b1565b60405180910390fd5b610bae848484846113a4565b50505050565b6060610bbf82611400565b9050919050565b610bce610ed5565b73ffffffffffffffffffffffffffffffffffffffff16610bec610904565b73ffffffffffffffffffffffffffffffffffffffff1614610c42576040517f08c379a0000000000000000000000000000000000000000000000000000000008152600401610c3990612631565b60405180910390fd5b6000610c4e6008611396565b9050610c5a6008611552565b610c648382611568565b610c6e8183611586565b505050565b6000600560008473ffffffffffffffffffffffffffffffffffffffff1673ffffffffffffffffffffffffffffffffffffffff16815260200190815260200160002060008373ffffffffffffffffffffffffffffffffffffffff1673ffffffffffffffffffffffffffffffffffffffff16815260200190815260200160002060009054906101000a900460ff16905092915050565b610d0f610ed5565b73ffffffffffffffffffffffffffffffffffffffff16610d2d610904565b73ffffffffffffffffffffffffffffffffffffffff1614610d83576040517f08c379a0000000000000000000000000000000000000000000000000000000008152600401610d7a90612631565b60405180910390fd5b600073ffffffffffffffffffffffffffffffffffffffff168173ffffffffffffffffffffffffffffffffffffffff161415610df3576040517f08c379a0000000000000000000000000000000000000000000000000000000008152600401610dea906124b1565b60405180910390fd5b610dfc816112d0565b50565b60007f01ffc9a7000000000000000000000000000000000000000000000000000000007bffffffffffffffffffffffffffffffffffffffffffffffffffffffff1916827bffffffffffffffffffffffffffffffffffffffffffffffffffffffff1916149050919050565b60008073ffffffffffffffffffffffffffffffffffffffff166002600084815260200190815260200160002060009054906101000a900473ffffffffffffffffffffffffffffffffffffffff1673ffffffffffffffffffffffffffffffffffffffff1614159050919050565b600033905090565b816004600083815260200190815260200160002060006101000a81548173ffffffffffffffffffffffffffffffffffffffff021916908373ffffffffffffffffffffffffffffffffffffffff160217905550808273ffffffffffffffffffffffffffffffffffffffff16610f5083610712565b73ffffffffffffffffffffffffffffffffffffffff167f8c5be1e5ebec7d5bd14f71427d1e84f3dd0314c0f7b2291e5b200ac8c7c3b92560405160405180910390a45050565b6000610fa182610e69565b610fe0576040517f08c379a0000000000000000000000000000000000000000000000000000000008152600401610fd790612531565b60405180910390fd5b6000610feb83610712565b90508073ffffffffffffffffffffffffffffffffffffffff168473ffffffffffffffffffffffffffffffffffffffff16148061105a57508373ffffffffffffffffffffffffffffffffffffffff16611042846104f5565b73ffffffffffffffffffffffffffffffffffffffff16145b8061106b575061106a8185610c73565b5b91505092915050565b8273ffffffffffffffffffffffffffffffffffffffff1661109482610712565b73ffffffffffffffffffffffffffffffffffffffff16146110ea576040517f08c379a00000000000000000000000000000000000000000000000000000000081526004016110e190612651565b60405180910390fd5b600073ffffffffffffffffffffffffffffffffffffffff168273ffffffffffffffffffffffffffffffffffffffff16141561115a576040517f08c379a0000000000000000000000000000000000000000000000000000000008152600401611151906124f1565b60405180910390fd5b6111658383836115fa565b611170600082610edd565b6001600360008573ffffffffffffffffffffffffffffffffffffffff1673ffffffffffffffffffffffffffffffffffffffff16815260200190815260200160002060008282546111c0919061283d565b925050819055506001600360008473ffffffffffffffffffffffffffffffffffffffff1673ffffffffffffffffffffffffffffffffffffffff168152602001908152602001600020600082825461121791906127b6565b92505081905550816002600083815260200190815260200160002060006101000a81548173ffffffffffffffffffffffffffffffffffffffff021916908373ffffffffffffffffffffffffffffffffffffffff160217905550808273ffffffffffffffffffffffffffffffffffffffff168473ffffffffffffffffffffffffffffffffffffffff167fddf252ad1be2c89b69c2b068fc378daa952ba7f163c4a11628f55a4df523b3ef60405160405180910390a4505050565b6000600760009054906101000a900473ffffffffffffffffffffffffffffffffffffffff16905081600760006101000a81548173ffffffffffffffffffffffffffffffffffffffff021916908373ffffffffffffffffffffffffffffffffffffffff1602179055508173ffffffffffffffffffffffffffffffffffffffff168173ffffffffffffffffffffffffffffffffffffffff167f8be0079c531659141344cd1fd0a4f28419497f9722a3daafe3b4186f6b6457e060405160405180910390a35050565b600081600001549050919050565b6113af848484611074565b6113bb848484846115ff565b6113fa576040517f08c379a00000000000000000000000000000000000000000000000000000000081526004016113f190612491565b60405180910390fd5b50505050565b606061140b82610e69565b61144a576040517f08c379a0000000000000000000000000000000000000000000000000000000008152600401611441906125f1565b60405180910390fd5b600060066000848152602001908152602001600020805461146a90612927565b80601f016020809104026020016040519081016040528092919081815260200182805461149690612927565b80156114e35780601f106114b8576101008083540402835291602001916114e3565b820191906000526020600020905b8154815290600101906020018083116114c657829003601f168201915b5050505050905060006114f4611796565b905060008151141561150a57819250505061154d565b60008251111561153f5780826040516020016115279291906123c9565b6040516020818303038152906040529250505061154d565b611548846117ad565b925050505b919050565b6001816000016000828254019250508190555050565b611582828260405180602001604052806000815250611854565b5050565b61158f82610e69565b6115ce576040517f08c379a00000000000000000000000000000000000000000000000000000000081526004016115c5906125b1565b60405180910390fd5b806006600084815260200190815260200160002090805190602001906115f5929190611bf1565b505050565b505050565b60006116208473ffffffffffffffffffffffffffffffffffffffff166118af565b15611789578373ffffffffffffffffffffffffffffffffffffffff1663150b7a02611649610ed5565b8786866040518563ffffffff1660e01b815260040161166b9493929190612408565b602060405180830381600087803b15801561168557600080fd5b505af19250505080156116b657506040513d601f19601f820116820180604052508101906116b39190612029565b60015b611739573d80600081146116e6576040519150601f19603f3d011682016040523d82523d6000602084013e6116eb565b606091505b50600081511415611731576040517f08c379a000000000000000000000000000000000000000000000000000000000815260040161172890612491565b60405180910390fd5b805181602001fd5b63150b7a0260e01b7bffffffffffffffffffffffffffffffffffffffffffffffffffffffff1916817bffffffffffffffffffffffffffffffffffffffffffffffffffffffff19161491505061178e565b600190505b949350505050565b606060405180602001604052806000815250905090565b60606117b882610e69565b6117f7576040517f08c379a00000000000000000000000000000000000000000000000000000000081526004016117ee90612671565b60405180910390fd5b6000611801611796565b90506000815111611821576040518060200160405280600081525061184c565b8061182b846118c2565b60405160200161183c9291906123c9565b6040516020818303038152906040525b915050919050565b61185e8383611a23565b61186b60008484846115ff565b6118aa576040517f08c379a00000000000000000000000000000000000000000000000000000000081526004016118a190612491565b60405180910390fd5b505050565b600080823b905060008111915050919050565b6060600082141561190a576040518060400160405280600181526020017f30000000000000000000000000000000000000000000000000000000000000008152509050611a1e565b600082905060005b6000821461193c5780806119259061298a565b915050600a82611935919061280c565b9150611912565b60008167ffffffffffffffff81111561195857611957612ac0565b5b6040519080825280601f01601f19166020018201604052801561198a5781602001600182028036833780820191505090505b5090505b60008514611a17576001826119a3919061283d565b9150600a856119b291906129d3565b60306119be91906127b6565b60f81b8183815181106119d4576119d3612a91565b5b60200101907effffffffffffffffffffffffffffffffffffffffffffffffffffffffffffff1916908160001a905350600a85611a10919061280c565b945061198e565b8093505050505b919050565b600073ffffffffffffffffffffffffffffffffffffffff168273ffffffffffffffffffffffffffffffffffffffff161415611a93576040517f08c379a0000000000000000000000000000000000000000000000000000000008152600401611a8a906125d1565b60405180910390fd5b611a9c81610e69565b15611adc576040517f08c379a0000000000000000000000000000000000000000000000000000000008152600401611ad3906124d1565b60405180910390fd5b611ae8600083836115fa565b6001600360008473ffffffffffffffffffffffffffffffffffffffff1673ffffffffffffffffffffffffffffffffffffffff1681526020019081526020016000206000828254611b3891906127b6565b92505081905550816002600083815260200190815260200160002060006101000a81548173ffffffffffffffffffffffffffffffffffffffff021916908373ffffffffffffffffffffffffffffffffffffffff160217905550808273ffffffffffffffffffffffffffffffffffffffff16600073ffffffffffffffffffffffffffffffffffffffff167fddf252ad1be2c89b69c2b068fc378daa952ba7f163c4a11628f55a4df523b3ef60405160405180910390a45050565b828054611bfd90612927565b90600052602060002090601f016020900481019282611c1f5760008555611c66565b82601f10611c3857805160ff1916838001178555611c66565b82800160010185558215611c66579182015b82811115611c65578251825591602001919060010190611c4a565b5b509050611c739190611c77565b5090565b5b80821115611c90576000816000905550600101611c78565b5090565b6000611ca7611ca284612711565b6126ec565b905082815260208101848484011115611cc357611cc2612af4565b5b611cce8482856128e5565b509392505050565b6000611ce9611ce484612742565b6126ec565b905082815260208101848484011115611d0557611d04612af4565b5b611d108482856128e5565b509392505050565b600081359050611d278161300a565b92915050565b600081359050611d3c81613021565b92915050565b600081359050611d5181613038565b92915050565b600081519050611d6681613038565b92915050565b600082601f830112611d8157611d80612aef565b5b8135611d91848260208601611c94565b91505092915050565b600082601f830112611daf57611dae612aef565b5b8135611dbf848260208601611cd6565b91505092915050565b600081359050611dd78161304f565b92915050565b600060208284031215611df357611df2612afe565b5b6000611e0184828501611d18565b91505092915050565b60008060408385031215611e2157611e20612afe565b5b6000611e2f85828601611d18565b9250506020611e4085828601611d18565b9150509250929050565b600080600060608486031215611e6357611e62612afe565b5b6000611e7186828701611d18565b9350506020611e8286828701611d18565b9250506040611e9386828701611dc8565b9150509250925092565b60008060008060808587031215611eb757611eb6612afe565b5b6000611ec587828801611d18565b9450506020611ed687828801611d18565b9350506040611ee787828801611dc8565b925050606085013567ffffffffffffffff811115611f0857611f07612af9565b5b611f1487828801611d6c565b91505092959194509250565b60008060408385031215611f3757611f36612afe565b5b6000611f4585828601611d18565b9250506020611f5685828601611d2d565b9150509250929050565b60008060408385031215611f7757611f76612afe565b5b6000611f8585828601611d18565b925050602083013567ffffffffffffffff811115611fa657611fa5612af9565b5b611fb285828601611d9a565b9150509250929050565b60008060408385031215611fd357611fd2612afe565b5b6000611fe185828601611d18565b9250506020611ff285828601611dc8565b9150509250929050565b60006020828403121561201257612011612afe565b5b600061202084828501611d42565b91505092915050565b60006020828403121561203f5761203e612afe565b5b600061204d84828501611d57565b91505092915050565b60006020828403121561206c5761206b612afe565b5b600061207a84828501611dc8565b91505092915050565b61208c81612871565b82525050565b61209b81612883565b82525050565b60006120ac82612773565b6120b68185612789565b93506120c68185602086016128f4565b6120cf81612b03565b840191505092915050565b60006120e58261277e565b6120ef818561279a565b93506120ff8185602086016128f4565b61210881612b03565b840191505092915050565b600061211e8261277e565b61212881856127ab565b93506121388185602086016128f4565b80840191505092915050565b600061215160328361279a565b915061215c82612b14565b604082019050919050565b600061217460268361279a565b915061217f82612b63565b604082019050919050565b6000612197601c8361279a565b91506121a282612bb2565b602082019050919050565b60006121ba60248361279a565b91506121c582612bdb565b604082019050919050565b60006121dd60198361279a565b91506121e882612c2a565b602082019050919050565b6000612200602c8361279a565b915061220b82612c53565b604082019050919050565b600061222360388361279a565b915061222e82612ca2565b604082019050919050565b6000612246602a8361279a565b915061225182612cf1565b604082019050919050565b600061226960298361279a565b915061227482612d40565b604082019050919050565b600061228c602e8361279a565b915061229782612d8f565b604082019050919050565b60006122af60208361279a565b91506122ba82612dde565b602082019050919050565b60006122d260318361279a565b91506122dd82612e07565b604082019050919050565b60006122f5602c8361279a565b915061230082612e56565b604082019050919050565b600061231860208361279a565b915061232382612ea5565b602082019050919050565b600061233b60298361279a565b915061234682612ece565b604082019050919050565b600061235e602f8361279a565b915061236982612f1d565b604082019050919050565b600061238160218361279a565b915061238c82612f6c565b604082019050919050565b60006123a460318361279a565b91506123af82612fbb565b604082019050919050565b6123c3816128db565b82525050565b60006123d58285612113565b91506123e18284612113565b91508190509392505050565b60006020820190506124026000830184612083565b92915050565b600060808201905061241d6000830187612083565b61242a6020830186612083565b61243760408301856123ba565b818103606083015261244981846120a1565b905095945050505050565b60006020820190506124696000830184612092565b92915050565b6000602082019050818103600083015261248981846120da565b905092915050565b600060208201905081810360008301526124aa81612144565b9050919050565b600060208201905081810360008301526124ca81612167565b9050919050565b600060208201905081810360008301526124ea8161218a565b9050919050565b6000602082019050818103600083015261250a816121ad565b9050919050565b6000602082019050818103600083015261252a816121d0565b9050919050565b6000602082019050818103600083015261254a816121f3565b9050919050565b6000602082019050818103600083015261256a81612216565b9050919050565b6000602082019050818103600083015261258a81612239565b9050919050565b600060208201905081810360008301526125aa8161225c565b9050919050565b600060208201905081810360008301526125ca8161227f565b9050919050565b600060208201905081810360008301526125ea816122a2565b9050919050565b6000602082019050818103600083015261260a816122c5565b9050919050565b6000602082019050818103600083015261262a816122e8565b9050919050565b6000602082019050818103600083015261264a8161230b565b9050919050565b6000602082019050818103600083015261266a8161232e565b9050919050565b6000602082019050818103600083015261268a81612351565b9050919050565b600060208201905081810360008301526126aa81612374565b9050919050565b600060208201905081810360008301526126ca81612397565b9050919050565b60006020820190506126e660008301846123ba565b92915050565b60006126f6612707565b90506127028282612959565b919050565b6000604051905090565b600067ffffffffffffffff82111561272c5761272b612ac0565b5b61273582612b03565b9050602081019050919050565b600067ffffffffffffffff82111561275d5761275c612ac0565b5b61276682612b03565b9050602081019050919050565b600081519050919050565b600081519050919050565b600082825260208201905092915050565b600082825260208201905092915050565b600081905092915050565b60006127c1826128db565b91506127cc836128db565b9250827fffffffffffffffffffffffffffffffffffffffffffffffffffffffffffffffff0382111561280157612800612a04565b5b828201905092915050565b6000612817826128db565b9150612822836128db565b92508261283257612831612a33565b5b828204905092915050565b6000612848826128db565b9150612853836128db565b92508282101561286657612865612a04565b5b828203905092915050565b600061287c826128bb565b9050919050565b60008115159050919050565b60007fffffffff0000000000000000000000000000000000000000000000000000000082169050919050565b600073ffffffffffffffffffffffffffffffffffffffff82169050919050565b6000819050919050565b82818337600083830152505050565b60005b838110156129125780820151818401526020810190506128f7565b83811115612921576000848401525b50505050565b6000600282049050600182168061293f57607f821691505b6020821081141561295357612952612a62565b5b50919050565b61296282612b03565b810181811067ffffffffffffffff8211171561298157612980612ac0565b5b80604052505050565b6000612995826128db565b91507fffffffffffffffffffffffffffffffffffffffffffffffffffffffffffffffff8214156129c8576129c7612a04565b5b600182019050919050565b60006129de826128db565b91506129e9836128db565b9250826129f9576129f8612a33565b5b828206905092915050565b7f4e487b7100000000000000000000000000000000000000000000000000000000600052601160045260246000fd5b7f4e487b7100000000000000000000000000000000000000000000000000000000600052601260045260246000fd5b7f4e487b7100000000000000000000000000000000000000000000000000000000600052602260045260246000fd5b7f4e487b7100000000000000000000000000000000000000000000000000000000600052603260045260246000fd5b7f4e487b7100000000000000000000000000000000000000000000000000000000600052604160045260246000fd5b600080fd5b600080fd5b600080fd5b600080fd5b6000601f19601f8301169050919050565b7f4552433732313a207472616e7366657220746f206e6f6e20455243373231526560008201527f63656976657220696d706c656d656e7465720000000000000000000000000000602082015250565b7f4f776e61626c653a206e6577206f776e657220697320746865207a65726f206160008201527f6464726573730000000000000000000000000000000000000000000000000000602082015250565b7f4552433732313a20746f6b656e20616c7265616479206d696e74656400000000600082015250565b7f4552433732313a207472616e7366657220746f20746865207a65726f2061646460008201527f7265737300000000000000000000000000000000000000000000000000000000602082015250565b7f4552433732313a20617070726f766520746f2063616c6c657200000000000000600082015250565b7f4552433732313a206f70657261746f7220717565727920666f72206e6f6e657860008201527f697374656e7420746f6b656e0000000000000000000000000000000000000000602082015250565b7f4552433732313a20617070726f76652063616c6c6572206973206e6f74206f7760008201527f6e6572206e6f7220617070726f76656420666f7220616c6c0000000000000000602082015250565b7f4552433732313a2062616c616e636520717565727920666f7220746865207a6560008201527f726f206164647265737300000000000000000000000000000000000000000000602082015250565b7f4552433732313a206f776e657220717565727920666f72206e6f6e657869737460008201527f656e7420746f6b656e0000000000000000000000000000000000000000000000602082015250565b7f45524337323155524953746f726167653a2055524920736574206f66206e6f6e60008201527f6578697374656e7420746f6b656e000000000000000000000000000000000000602082015250565b7f4552433732313a206d696e7420746f20746865207a65726f2061646472657373600082015250565b7f45524337323155524953746f726167653a2055524920717565727920666f722060008201527f6e6f6e6578697374656e7420746f6b656e000000000000000000000000000000602082015250565b7f4552433732313a20617070726f76656420717565727920666f72206e6f6e657860008201527f697374656e7420746f6b656e0000000000000000000000000000000000000000602082015250565b7f4f776e61626c653a2063616c6c6572206973206e6f7420746865206f776e6572600082015250565b7f4552433732313a207472616e73666572206f6620746f6b656e2074686174206960008201527f73206e6f74206f776e0000000000000000000000000000000000000000000000602082015250565b7f4552433732314d657461646174613a2055524920717565727920666f72206e6f60008201527f6e6578697374656e7420746f6b656e0000000000000000000000000000000000602082015250565b7f4552433732313a20617070726f76616c20746f2063757272656e74206f776e6560008201527f7200000000000000000000000000000000000000000000000000000000000000602082015250565b7f4552433732313a207472616e736665722063616c6c6572206973206e6f74206f60008201527f776e6572206e6f7220617070726f766564000000000000000000000000000000602082015250565b61301381612871565b811461301e57600080fd5b50565b61302a81612883565b811461303557600080fd5b50565b6130418161288f565b811461304c57600080fd5b50565b613058816128db565b811461306357600080fd5b5056fea2646970667358221220bcb09ac13755b19027e0e8c113d9bc5a9a3cd606c94e278c09bc450b47605c6464736f6c63430008060033",
  "immutableReferences": {},
  "source": "// SPDX-License-Identifier: MIT\r\npragma solidity ^0.8.2;\r\n\r\nimport \"@openzeppelin/contracts/token/ERC721/ERC721.sol\";\r\nimport \"@openzeppelin/contracts/token/ERC721/extensions/ERC721URIStorage.sol\";\r\nimport \"@openzeppelin/contracts/access/Ownable.sol\";\r\nimport \"@openzeppelin/contracts/utils/Counters.sol\";\r\n// nftReceiver\r\nimport \"@openzeppelin/contracts/token/ERC721/IERC721Receiver.sol\";\r\n\r\n\r\ncontract Ismatoken is ERC721, ERC721URIStorage, Ownable {\r\n    using Counters for Counters.Counter;\r\n\r\n    Counters.Counter private _tokenIdCounter;\r\n\r\n    constructor() ERC721(\"ismatoken\", \"isma\") {\r\n    //   safeMint(msg.sender, 'https://picsum.photos/400');\r\n    //   safeMint(msg.sender, 'https://picsum.photos/400');\r\n    //   safeMint(msg.sender, 'https://picsum.photos/400');\r\n    //   safeMint(msg.sender, 'https://picsum.photos/400');\r\n    //   safeMint(msg.sender, 'https://picsum.photos/400');\r\n    //   safeMint(msg.sender, 'https://picsum.photos/400');\r\n    //   safeMint(msg.sender, 'https://picsum.photos/400');\r\n    //   safeMint(msg.sender, 'https://picsum.photos/400');\r\n    //   safeMint(msg.sender, 'https://picsum.photos/400');\r\n    //   safeMint(msg.sender, 'https://picsum.photos/400');\r\n    //   safeMint(msg.sender, 'https://picsum.photos/400');\r\n    }\r\n\r\n    function safeMint(address to, string memory uri) public onlyOwner {\r\n        uint256 tokenId = _tokenIdCounter.current();\r\n        _tokenIdCounter.increment();\r\n        _safeMint(to, tokenId);\r\n        _setTokenURI(tokenId, uri);\r\n    }\r\n    \r\n    // custom\r\n    \r\n    function totalMinted() public view returns(uint total){\r\n        total = _tokenIdCounter.current();\r\n    }\r\n\r\n    // The following functions are overrides required by Solidity.\r\n\r\n    function _burn(uint256 tokenId) internal override(ERC721, ERC721URIStorage) {\r\n        super._burn(tokenId);\r\n    }\r\n\r\n    function tokenURI(uint256 tokenId)\r\n        public\r\n        view\r\n        override(ERC721, ERC721URIStorage)\r\n        returns (string memory)\r\n    {\r\n        return super.tokenURI(tokenId);\r\n    }\r\n}\r\n\r\n\r\ncontract Market is IERC721Receiver, Ownable {\r\n    using Counters for Counters.Counter;\r\n    \r\n    function onERC721Received(address, address, uint256, bytes memory) public virtual override returns(bytes4){\r\n        return this.onERC721Received.selector;\r\n    }\r\n    \r\n    struct Sale {\r\n        uint price;\r\n        uint tokenId;\r\n        address seller;\r\n        address buyer;\r\n        address nftAddress;\r\n        bool active;\r\n    }\r\n    \r\n    event ContractAllowed(address indexed nftAddress, address indexed by);\r\n    event ContractDisallowed(address indexed nftAddress, address indexed by);\r\n\r\n    event SaleCreated(uint saleId, address indexed seller, uint price, address indexed nftAddress);\r\n    event ItemBought(uint saleId, address indexed seller, address indexed buyer, address indexed nftAddress ,uint price);\r\n    event SaleCanceled(uint saleId, address indexed by);\r\n\r\n    Counters.Counter private salesCounter;\r\n    \r\n    mapping(uint=>Sale) public sales;\r\n\r\n    mapping(address=>bool) private allowed_contracts;\r\n    \r\n    constructor (address[] memory _allowed_contracts){\r\n        for(uint i=0;i<_allowed_contracts.length;i++){\r\n            address _addr = _allowed_contracts[i];\r\n            allowed_contracts[_addr]=true;\r\n        }\r\n    }\r\n    \r\n    function addAllowedContract(address _addr) public onlyOwner {\r\n        bool exists = allowed_contracts[_addr];\r\n        require(!exists,'contract already added');\r\n        allowed_contracts[_addr]=true;\r\n\r\n        emit ContractAllowed(_addr, msg.sender);\r\n    }\r\n    function removeAllowedContract(address _addr) public onlyOwner{\r\n        bool exists = allowed_contracts[_addr];\r\n        require(exists,'address does not exist');\r\n        allowed_contracts[_addr]=false;\r\n\r\n        emit ContractDisallowed(_addr, msg.sender);\r\n    }\r\n    \r\n    function createSale(uint _price, uint _tokenId, address _nftContract) public onlyOwner {\r\n        require(allowed_contracts[_nftContract],'nft contract not allowed');\r\n        require(_price > 0, 'price must be greater than 0');\r\n        address tokenIdOwner = IERC721(_nftContract).ownerOf(_tokenId);\r\n        require(tokenIdOwner == msg.sender, 'youre not the owner of the token');\r\n        Sale memory new_sale = Sale(_price, _tokenId, msg.sender ,address(0), _nftContract, true);\r\n        \r\n        uint index = salesCounter.current();\r\n \r\n        sales[index] = new_sale;\r\n        salesCounter.increment();\r\n        IERC721(_nftContract).safeTransferFrom(msg.sender,address(this),_tokenId);\r\n\r\n        emit SaleCreated(index, msg.sender, _price, _nftContract);\r\n    }\r\n\r\n    function cancelSale(uint _saleId) public{\r\n        Sale storage sale = sales[_saleId];\r\n        require(msg.sender == sale.seller, 'Incorrect owner of the sale');\r\n        sale.active = false;\r\n        IERC721(sale.nftAddress).safeTransferFrom(address(this),sale.seller,sale.tokenId);\r\n        emit SaleCanceled(_saleId, msg.sender);\r\n    }\r\n    \r\n    function buy(uint saleIndex) public payable{\r\n        Sale storage sale = sales[saleIndex];\r\n        bool _isActive = sale.active;\r\n        uint _price = sale.price;\r\n        address _nftContract = sale.nftAddress;\r\n        address _seller =  sale.seller;\r\n        uint id = sale.tokenId;\r\n        \r\n        require(_isActive,'sale is not active or does not exist');\r\n        require(msg.value == _price, 'not enough ether');\r\n        \r\n        (bool sent, ) = payable(_seller).call{value: msg.value}(\"\");\r\n        require(sent, \"Failed to send Ether\");\r\n        \r\n        sale.active = false;\r\n        sale.buyer = msg.sender;\r\n        IERC721(_nftContract).safeTransferFrom(address(this),msg.sender,id);\r\n\r\n        emit ItemBought(saleIndex, _seller, msg.sender, _nftContract , _price );        \r\n    }\r\n    \r\n\r\n    function getTotalSales() public view returns(uint){\r\n        return salesCounter.current();\r\n    }\r\n    \r\n}\r\n\r\n",
  "sourcePath": "D:/00-Mundo Digital/codigo/Learning/Javascript/reactiu/web3learn/contracts/nft.sol",
  "compiler": {
    "name": "solc",
    "version": "0.8.6+commit.11564f7e.Emscripten.clang"
  },
  "schemaVersion": "3.4.1",
  "updatedAt": "2021-12-03T18:30:36.386Z",
  "networkType": "ethereum",
  "devdoc": {
    "kind": "dev",
    "methods": {
      "approve(address,uint256)": {
        "details": "See {IERC721-approve}."
      },
      "balanceOf(address)": {
        "details": "See {IERC721-balanceOf}."
      },
      "getApproved(uint256)": {
        "details": "See {IERC721-getApproved}."
      },
      "isApprovedForAll(address,address)": {
        "details": "See {IERC721-isApprovedForAll}."
      },
      "name()": {
        "details": "See {IERC721Metadata-name}."
      },
      "owner()": {
        "details": "Returns the address of the current owner."
      },
      "ownerOf(uint256)": {
        "details": "See {IERC721-ownerOf}."
      },
      "renounceOwnership()": {
        "details": "Leaves the contract without owner. It will not be possible to call `onlyOwner` functions anymore. Can only be called by the current owner. NOTE: Renouncing ownership will leave the contract without an owner, thereby removing any functionality that is only available to the owner."
      },
      "safeTransferFrom(address,address,uint256)": {
        "details": "See {IERC721-safeTransferFrom}."
      },
      "safeTransferFrom(address,address,uint256,bytes)": {
        "details": "See {IERC721-safeTransferFrom}."
      },
      "setApprovalForAll(address,bool)": {
        "details": "See {IERC721-setApprovalForAll}."
      },
      "supportsInterface(bytes4)": {
        "details": "See {IERC165-supportsInterface}."
      },
      "symbol()": {
        "details": "See {IERC721Metadata-symbol}."
      },
      "transferFrom(address,address,uint256)": {
        "details": "See {IERC721-transferFrom}."
      },
      "transferOwnership(address)": {
        "details": "Transfers ownership of the contract to a new account (`newOwner`). Can only be called by the current owner."
      }
    },
    "version": 1
  },
  "userdoc": {
    "kind": "user",
    "methods": {},
    "version": 1
  }
}