{
  "contractName": "Market",
  "abi": [
    {
      "inputs": [
        {
          "internalType": "address[]",
          "name": "_allowed_contracts",
          "type": "address[]"
        }
      ],
      "stateMutability": "nonpayable",
      "type": "constructor"
    },
    {
      "anonymous": false,
      "inputs": [
        {
          "indexed": true,
          "internalType": "address",
          "name": "nftAddress",
          "type": "address"
        },
        {
          "indexed": true,
          "internalType": "address",
          "name": "by",
          "type": "address"
        }
      ],
      "name": "ContractAllowed",
      "type": "event"
    },
    {
      "anonymous": false,
      "inputs": [
        {
          "indexed": true,
          "internalType": "address",
          "name": "nftAddress",
          "type": "address"
        },
        {
          "indexed": true,
          "internalType": "address",
          "name": "by",
          "type": "address"
        }
      ],
      "name": "ContractDisallowed",
      "type": "event"
    },
    {
      "anonymous": false,
      "inputs": [
        {
          "indexed": false,
          "internalType": "uint256",
          "name": "saleId",
          "type": "uint256"
        },
        {
          "indexed": true,
          "internalType": "address",
          "name": "seller",
          "type": "address"
        },
        {
          "indexed": true,
          "internalType": "address",
          "name": "buyer",
          "type": "address"
        },
        {
          "indexed": true,
          "internalType": "address",
          "name": "nftAddress",
          "type": "address"
        },
        {
          "indexed": false,
          "internalType": "uint256",
          "name": "price",
          "type": "uint256"
        }
      ],
      "name": "ItemBought",
      "type": "event"
    },
    {
      "anonymous": false,
      "inputs": [
        {
          "indexed": true,
          "internalType": "address",
          "name": "previousOwner",
          "type": "address"
        },
        {
          "indexed": true,
          "internalType": "address",
          "name": "newOwner",
          "type": "address"
        }
      ],
      "name": "OwnershipTransferred",
      "type": "event"
    },
    {
      "anonymous": false,
      "inputs": [
        {
          "indexed": false,
          "internalType": "uint256",
          "name": "saleId",
          "type": "uint256"
        },
        {
          "indexed": true,
          "internalType": "address",
          "name": "by",
          "type": "address"
        }
      ],
      "name": "SaleCanceled",
      "type": "event"
    },
    {
      "anonymous": false,
      "inputs": [
        {
          "indexed": false,
          "internalType": "uint256",
          "name": "saleId",
          "type": "uint256"
        },
        {
          "indexed": true,
          "internalType": "address",
          "name": "seller",
          "type": "address"
        },
        {
          "indexed": false,
          "internalType": "uint256",
          "name": "price",
          "type": "uint256"
        },
        {
          "indexed": true,
          "internalType": "address",
          "name": "nftAddress",
          "type": "address"
        }
      ],
      "name": "SaleCreated",
      "type": "event"
    },
    {
      "inputs": [],
      "name": "owner",
      "outputs": [
        {
          "internalType": "address",
          "name": "",
          "type": "address"
        }
      ],
      "stateMutability": "view",
      "type": "function",
      "constant": true
    },
    {
      "inputs": [],
      "name": "renounceOwnership",
      "outputs": [],
      "stateMutability": "nonpayable",
      "type": "function"
    },
    {
      "inputs": [
        {
          "internalType": "uint256",
          "name": "",
          "type": "uint256"
        }
      ],
      "name": "sales",
      "outputs": [
        {
          "internalType": "uint256",
          "name": "price",
          "type": "uint256"
        },
        {
          "internalType": "uint256",
          "name": "tokenId",
          "type": "uint256"
        },
        {
          "internalType": "address",
          "name": "seller",
          "type": "address"
        },
        {
          "internalType": "address",
          "name": "buyer",
          "type": "address"
        },
        {
          "internalType": "address",
          "name": "nftAddress",
          "type": "address"
        },
        {
          "internalType": "bool",
          "name": "active",
          "type": "bool"
        }
      ],
      "stateMutability": "view",
      "type": "function",
      "constant": true
    },
    {
      "inputs": [
        {
          "internalType": "address",
          "name": "newOwner",
          "type": "address"
        }
      ],
      "name": "transferOwnership",
      "outputs": [],
      "stateMutability": "nonpayable",
      "type": "function"
    },
    {
      "inputs": [
        {
          "internalType": "address",
          "name": "",
          "type": "address"
        },
        {
          "internalType": "address",
          "name": "",
          "type": "address"
        },
        {
          "internalType": "uint256",
          "name": "",
          "type": "uint256"
        },
        {
          "internalType": "bytes",
          "name": "",
          "type": "bytes"
        }
      ],
      "name": "onERC721Received",
      "outputs": [
        {
          "internalType": "bytes4",
          "name": "",
          "type": "bytes4"
        }
      ],
      "stateMutability": "nonpayable",
      "type": "function"
    },
    {
      "inputs": [
        {
          "internalType": "address",
          "name": "_addr",
          "type": "address"
        }
      ],
      "name": "addAllowedContract",
      "outputs": [],
      "stateMutability": "nonpayable",
      "type": "function"
    },
    {
      "inputs": [
        {
          "internalType": "address",
          "name": "_addr",
          "type": "address"
        }
      ],
      "name": "removeAllowedContract",
      "outputs": [],
      "stateMutability": "nonpayable",
      "type": "function"
    },
    {
      "inputs": [
        {
          "internalType": "uint256",
          "name": "_price",
          "type": "uint256"
        },
        {
          "internalType": "uint256",
          "name": "_tokenId",
          "type": "uint256"
        },
        {
          "internalType": "address",
          "name": "_nftContract",
          "type": "address"
        }
      ],
      "name": "createSale",
      "outputs": [],
      "stateMutability": "nonpayable",
      "type": "function"
    },
    {
      "inputs": [
        {
          "internalType": "uint256",
          "name": "_saleId",
          "type": "uint256"
        }
      ],
      "name": "cancelSale",
      "outputs": [],
      "stateMutability": "nonpayable",
      "type": "function"
    },
    {
      "inputs": [
        {
          "internalType": "uint256",
          "name": "saleIndex",
          "type": "uint256"
        }
      ],
      "name": "buy",
      "outputs": [],
      "stateMutability": "payable",
      "type": "function",
      "payable": true
    },
    {
      "inputs": [],
      "name": "getTotalSales",
      "outputs": [
        {
          "internalType": "uint256",
          "name": "",
          "type": "uint256"
        }
      ],
      "stateMutability": "view",
      "type": "function",
      "constant": true
    }
  ],
  "bytecode": "0x60806040523480156200001157600080fd5b50604051620022583803806200225883398181016040528101906200003791906200028e565b620000576200004b620000fd60201b60201c565b6200010560201b60201c565b60005b8151811015620000f55760008282815181106200007c576200007b62000428565b5b602002602001015190506001600360008373ffffffffffffffffffffffffffffffffffffffff1673ffffffffffffffffffffffffffffffffffffffff16815260200190815260200160002060006101000a81548160ff021916908315150217905550508080620000ec90620003ab565b9150506200005a565b5050620004c5565b600033905090565b60008060009054906101000a900473ffffffffffffffffffffffffffffffffffffffff169050816000806101000a81548173ffffffffffffffffffffffffffffffffffffffff021916908373ffffffffffffffffffffffffffffffffffffffff1602179055508173ffffffffffffffffffffffffffffffffffffffff168173ffffffffffffffffffffffffffffffffffffffff167f8be0079c531659141344cd1fd0a4f28419497f9722a3daafe3b4186f6b6457e060405160405180910390a35050565b6000620001e0620001da8462000308565b620002df565b905080838252602082019050828560208602820111156200020657620002056200048b565b5b60005b858110156200023a57816200021f888262000244565b84526020840193506020830192505060018101905062000209565b5050509392505050565b6000815190506200025581620004ab565b92915050565b600082601f83011262000273576200027262000486565b5b815162000285848260208601620001c9565b91505092915050565b600060208284031215620002a757620002a662000495565b5b600082015167ffffffffffffffff811115620002c857620002c762000490565b5b620002d6848285016200025b565b91505092915050565b6000620002eb620002fe565b9050620002f9828262000375565b919050565b6000604051905090565b600067ffffffffffffffff82111562000326576200032562000457565b5b602082029050602081019050919050565b600062000344826200034b565b9050919050565b600073ffffffffffffffffffffffffffffffffffffffff82169050919050565b6000819050919050565b62000380826200049a565b810181811067ffffffffffffffff82111715620003a257620003a162000457565b5b80604052505050565b6000620003b8826200036b565b91507fffffffffffffffffffffffffffffffffffffffffffffffffffffffffffffffff821415620003ee57620003ed620003f9565b5b600182019050919050565b7f4e487b7100000000000000000000000000000000000000000000000000000000600052601160045260246000fd5b7f4e487b7100000000000000000000000000000000000000000000000000000000600052603260045260246000fd5b7f4e487b7100000000000000000000000000000000000000000000000000000000600052604160045260246000fd5b600080fd5b600080fd5b600080fd5b600080fd5b6000601f19601f8301169050919050565b620004b68162000337565b8114620004c257600080fd5b50565b611d8380620004d56000396000f3fe60806040526004361061009c5760003560e01c80639800fc16116100645780639800fc1614610174578063995cd6531461019d578063b5f522f7146101c6578063bd94b00514610208578063d96a094a14610231578063f2fde38b1461024d5761009c565b8063150b7a02146100a15780632156a96c146100de5780632c56462f14610109578063715018a6146101325780638da5cb5b14610149575b600080fd5b3480156100ad57600080fd5b506100c860048036038101906100c39190611429565b610276565b6040516100d59190611773565b60405180910390f35b3480156100ea57600080fd5b506100f361028a565b60405161010091906118ee565b60405180910390f35b34801561011557600080fd5b50610130600480360381019061012b91906113cf565b61029b565b005b34801561013e57600080fd5b5061014761045f565b005b34801561015557600080fd5b5061015e6104e7565b60405161016b9190611721565b60405180910390f35b34801561018057600080fd5b5061019b600480360381019061019691906113cf565b610510565b005b3480156101a957600080fd5b506101c460048036038101906101bf91906114d9565b6106d3565b005b3480156101d257600080fd5b506101ed60048036038101906101e891906114ac565b610ba6565b6040516101ff96959493929190611932565b60405180910390f35b34801561021457600080fd5b5061022f600480360381019061022a91906114ac565b610c4f565b005b61024b600480360381019061024691906114ac565b610e22565b005b34801561025957600080fd5b50610274600480360381019061026f91906113cf565b611138565b005b600063150b7a0260e01b9050949350505050565b60006102966001611230565b905090565b6102a361123e565b73ffffffffffffffffffffffffffffffffffffffff166102c16104e7565b73ffffffffffffffffffffffffffffffffffffffff1614610317576040517f08c379a000000000000000000000000000000000000000000000000000000000815260040161030e906118ae565b60405180910390fd5b6000600360008373ffffffffffffffffffffffffffffffffffffffff1673ffffffffffffffffffffffffffffffffffffffff16815260200190815260200160002060009054906101000a900460ff16905080156103a9576040517f08c379a00000000000000000000000000000000000000000000000000000000081526004016103a0906117ce565b60405180910390fd5b6001600360008473ffffffffffffffffffffffffffffffffffffffff1673ffffffffffffffffffffffffffffffffffffffff16815260200190815260200160002060006101000a81548160ff0219169083151502179055503373ffffffffffffffffffffffffffffffffffffffff168273ffffffffffffffffffffffffffffffffffffffff167f4bcbefaef68b99503d502f5a6abe7bca2b183ab8ac55457013c77d084ebd130560405160405180910390a35050565b61046761123e565b73ffffffffffffffffffffffffffffffffffffffff166104856104e7565b73ffffffffffffffffffffffffffffffffffffffff16146104db576040517f08c379a00000000000000000000000000000000000000000000000000000000081526004016104d2906118ae565b60405180910390fd5b6104e56000611246565b565b60008060009054906101000a900473ffffffffffffffffffffffffffffffffffffffff16905090565b61051861123e565b73ffffffffffffffffffffffffffffffffffffffff166105366104e7565b73ffffffffffffffffffffffffffffffffffffffff161461058c576040517f08c379a0000000000000000000000000000000000000000000000000000000008152600401610583906118ae565b60405180910390fd5b6000600360008373ffffffffffffffffffffffffffffffffffffffff1673ffffffffffffffffffffffffffffffffffffffff16815260200190815260200160002060009054906101000a900460ff1690508061061d576040517f08c379a00000000000000000000000000000000000000000000000000000000081526004016106149061188e565b60405180910390fd5b6000600360008473ffffffffffffffffffffffffffffffffffffffff1673ffffffffffffffffffffffffffffffffffffffff16815260200190815260200160002060006101000a81548160ff0219169083151502179055503373ffffffffffffffffffffffffffffffffffffffff168273ffffffffffffffffffffffffffffffffffffffff167fed56dcf731f82025e5167f49bf3757c45a353b06a7eb49f07b16bd1892fc0b7660405160405180910390a35050565b6106db61123e565b73ffffffffffffffffffffffffffffffffffffffff166106f96104e7565b73ffffffffffffffffffffffffffffffffffffffff161461074f576040517f08c379a0000000000000000000000000000000000000000000000000000000008152600401610746906118ae565b60405180910390fd5b600360008273ffffffffffffffffffffffffffffffffffffffff1673ffffffffffffffffffffffffffffffffffffffff16815260200190815260200160002060009054906101000a900460ff166107db576040517f08c379a00000000000000000000000000000000000000000000000000000000081526004016107d29061182e565b60405180910390fd5b6000831161081e576040517f08c379a0000000000000000000000000000000000000000000000000000000008152600401610815906117ae565b60405180910390fd5b60008173ffffffffffffffffffffffffffffffffffffffff16636352211e846040518263ffffffff1660e01b815260040161085991906118ee565b60206040518083038186803b15801561087157600080fd5b505afa158015610885573d6000803e3d6000fd5b505050506040513d601f19601f820116820180604052508101906108a991906113fc565b90503373ffffffffffffffffffffffffffffffffffffffff168173ffffffffffffffffffffffffffffffffffffffff1614610919576040517f08c379a00000000000000000000000000000000000000000000000000000000081526004016109109061186e565b60405180910390fd5b60006040518060c001604052808681526020018581526020013373ffffffffffffffffffffffffffffffffffffffff168152602001600073ffffffffffffffffffffffffffffffffffffffff1681526020018473ffffffffffffffffffffffffffffffffffffffff168152602001600115158152509050600061099c6001611230565b90508160026000838152602001908152602001600020600082015181600001556020820151816001015560408201518160020160006101000a81548173ffffffffffffffffffffffffffffffffffffffff021916908373ffffffffffffffffffffffffffffffffffffffff16021790555060608201518160030160006101000a81548173ffffffffffffffffffffffffffffffffffffffff021916908373ffffffffffffffffffffffffffffffffffffffff16021790555060808201518160040160006101000a81548173ffffffffffffffffffffffffffffffffffffffff021916908373ffffffffffffffffffffffffffffffffffffffff16021790555060a08201518160040160146101000a81548160ff021916908315150217905550905050610ac8600161130a565b8373ffffffffffffffffffffffffffffffffffffffff166342842e0e3330886040518463ffffffff1660e01b8152600401610b059392919061173c565b600060405180830381600087803b158015610b1f57600080fd5b505af1158015610b33573d6000803e3d6000fd5b505050508373ffffffffffffffffffffffffffffffffffffffff163373ffffffffffffffffffffffffffffffffffffffff167f14febeee90749ea75be511a1a652e90800dfb99c11d251bb71940520180b58798389604051610b96929190611909565b60405180910390a3505050505050565b60026020528060005260406000206000915090508060000154908060010154908060020160009054906101000a900473ffffffffffffffffffffffffffffffffffffffff16908060030160009054906101000a900473ffffffffffffffffffffffffffffffffffffffff16908060040160009054906101000a900473ffffffffffffffffffffffffffffffffffffffff16908060040160149054906101000a900460ff16905086565b60006002600083815260200190815260200160002090508060020160009054906101000a900473ffffffffffffffffffffffffffffffffffffffff1673ffffffffffffffffffffffffffffffffffffffff163373ffffffffffffffffffffffffffffffffffffffff1614610cf8576040517f08c379a0000000000000000000000000000000000000000000000000000000008152600401610cef9061184e565b60405180910390fd5b60008160040160146101000a81548160ff0219169083151502179055508060040160009054906101000a900473ffffffffffffffffffffffffffffffffffffffff1673ffffffffffffffffffffffffffffffffffffffff166342842e0e308360020160009054906101000a900473ffffffffffffffffffffffffffffffffffffffff1684600101546040518463ffffffff1660e01b8152600401610d9e9392919061173c565b600060405180830381600087803b158015610db857600080fd5b505af1158015610dcc573d6000803e3d6000fd5b505050503373ffffffffffffffffffffffffffffffffffffffff167fc17a2000b952093a1b49de547dc3416f2a96f6d78da5b597d5ee0272b6be70e983604051610e1691906118ee565b60405180910390a25050565b600060026000838152602001908152602001600020905060008160040160149054906101000a900460ff16905060008260000154905060008360040160009054906101000a900473ffffffffffffffffffffffffffffffffffffffff16905060008460020160009054906101000a900473ffffffffffffffffffffffffffffffffffffffff16905060008560010154905084610ef3576040517f08c379a0000000000000000000000000000000000000000000000000000000008152600401610eea9061180e565b60405180910390fd5b833414610f35576040517f08c379a0000000000000000000000000000000000000000000000000000000008152600401610f2c906118ce565b60405180910390fd5b60008273ffffffffffffffffffffffffffffffffffffffff1634604051610f5b9061170c565b60006040518083038185875af1925050503d8060008114610f98576040519150601f19603f3d011682016040523d82523d6000602084013e610f9d565b606091505b5050905080610fe1576040517f08c379a0000000000000000000000000000000000000000000000000000000008152600401610fd8906117ee565b60405180910390fd5b60008760040160146101000a81548160ff021916908315150217905550338760030160006101000a81548173ffffffffffffffffffffffffffffffffffffffff021916908373ffffffffffffffffffffffffffffffffffffffff1602179055508373ffffffffffffffffffffffffffffffffffffffff166342842e0e3033856040518463ffffffff1660e01b815260040161107e9392919061173c565b600060405180830381600087803b15801561109857600080fd5b505af11580156110ac573d6000803e3d6000fd5b505050508373ffffffffffffffffffffffffffffffffffffffff163373ffffffffffffffffffffffffffffffffffffffff168473ffffffffffffffffffffffffffffffffffffffff167f4e3f9e8b693e9974db110dc1d49a290392bd65c559ee233d196e9f41ec6f3c1e8b89604051611126929190611909565b60405180910390a45050505050505050565b61114061123e565b73ffffffffffffffffffffffffffffffffffffffff1661115e6104e7565b73ffffffffffffffffffffffffffffffffffffffff16146111b4576040517f08c379a00000000000000000000000000000000000000000000000000000000081526004016111ab906118ae565b60405180910390fd5b600073ffffffffffffffffffffffffffffffffffffffff168173ffffffffffffffffffffffffffffffffffffffff161415611224576040517f08c379a000000000000000000000000000000000000000000000000000000000815260040161121b9061178e565b60405180910390fd5b61122d81611246565b50565b600081600001549050919050565b600033905090565b60008060009054906101000a900473ffffffffffffffffffffffffffffffffffffffff169050816000806101000a81548173ffffffffffffffffffffffffffffffffffffffff021916908373ffffffffffffffffffffffffffffffffffffffff1602179055508173ffffffffffffffffffffffffffffffffffffffff168173ffffffffffffffffffffffffffffffffffffffff167f8be0079c531659141344cd1fd0a4f28419497f9722a3daafe3b4186f6b6457e060405160405180910390a35050565b6001816000016000828254019250508190555050565b600061133361132e846119b8565b611993565b90508281526020810184848401111561134f5761134e611aed565b5b61135a848285611a79565b509392505050565b60008135905061137181611d1f565b92915050565b60008151905061138681611d1f565b92915050565b600082601f8301126113a1576113a0611ae8565b5b81356113b1848260208601611320565b91505092915050565b6000813590506113c981611d36565b92915050565b6000602082840312156113e5576113e4611af7565b5b60006113f384828501611362565b91505092915050565b60006020828403121561141257611411611af7565b5b600061142084828501611377565b91505092915050565b6000806000806080858703121561144357611442611af7565b5b600061145187828801611362565b945050602061146287828801611362565b9350506040611473878288016113ba565b925050606085013567ffffffffffffffff81111561149457611493611af2565b5b6114a08782880161138c565b91505092959194509250565b6000602082840312156114c2576114c1611af7565b5b60006114d0848285016113ba565b91505092915050565b6000806000606084860312156114f2576114f1611af7565b5b6000611500868287016113ba565b9350506020611511868287016113ba565b925050604061152286828701611362565b9150509250925092565b61153581611a05565b82525050565b61154481611a17565b82525050565b61155381611a23565b82525050565b60006115666026836119f4565b915061157182611b0d565b604082019050919050565b6000611589601c836119f4565b915061159482611b5c565b602082019050919050565b60006115ac6016836119f4565b91506115b782611b85565b602082019050919050565b60006115cf6014836119f4565b91506115da82611bae565b602082019050919050565b60006115f26024836119f4565b91506115fd82611bd7565b604082019050919050565b60006116156018836119f4565b915061162082611c26565b602082019050919050565b6000611638601b836119f4565b915061164382611c4f565b602082019050919050565b600061165b6020836119f4565b915061166682611c78565b602082019050919050565b600061167e6016836119f4565b915061168982611ca1565b602082019050919050565b60006116a16020836119f4565b91506116ac82611cca565b602082019050919050565b60006116c46000836119e9565b91506116cf82611cf3565b600082019050919050565b60006116e76010836119f4565b91506116f282611cf6565b602082019050919050565b61170681611a6f565b82525050565b6000611717826116b7565b9150819050919050565b6000602082019050611736600083018461152c565b92915050565b6000606082019050611751600083018661152c565b61175e602083018561152c565b61176b60408301846116fd565b949350505050565b6000602082019050611788600083018461154a565b92915050565b600060208201905081810360008301526117a781611559565b9050919050565b600060208201905081810360008301526117c78161157c565b9050919050565b600060208201905081810360008301526117e78161159f565b9050919050565b60006020820190508181036000830152611807816115c2565b9050919050565b60006020820190508181036000830152611827816115e5565b9050919050565b6000602082019050818103600083015261184781611608565b9050919050565b600060208201905081810360008301526118678161162b565b9050919050565b600060208201905081810360008301526118878161164e565b9050919050565b600060208201905081810360008301526118a781611671565b9050919050565b600060208201905081810360008301526118c781611694565b9050919050565b600060208201905081810360008301526118e7816116da565b9050919050565b600060208201905061190360008301846116fd565b92915050565b600060408201905061191e60008301856116fd565b61192b60208301846116fd565b9392505050565b600060c08201905061194760008301896116fd565b61195460208301886116fd565b611961604083018761152c565b61196e606083018661152c565b61197b608083018561152c565b61198860a083018461153b565b979650505050505050565b600061199d6119ae565b90506119a98282611a88565b919050565b6000604051905090565b600067ffffffffffffffff8211156119d3576119d2611ab9565b5b6119dc82611afc565b9050602081019050919050565b600081905092915050565b600082825260208201905092915050565b6000611a1082611a4f565b9050919050565b60008115159050919050565b60007fffffffff0000000000000000000000000000000000000000000000000000000082169050919050565b600073ffffffffffffffffffffffffffffffffffffffff82169050919050565b6000819050919050565b82818337600083830152505050565b611a9182611afc565b810181811067ffffffffffffffff82111715611ab057611aaf611ab9565b5b80604052505050565b7f4e487b7100000000000000000000000000000000000000000000000000000000600052604160045260246000fd5b600080fd5b600080fd5b600080fd5b600080fd5b6000601f19601f8301169050919050565b7f4f776e61626c653a206e6577206f776e657220697320746865207a65726f206160008201527f6464726573730000000000000000000000000000000000000000000000000000602082015250565b7f7072696365206d7573742062652067726561746572207468616e203000000000600082015250565b7f636f6e747261637420616c726561647920616464656400000000000000000000600082015250565b7f4661696c656420746f2073656e64204574686572000000000000000000000000600082015250565b7f73616c65206973206e6f7420616374697665206f7220646f6573206e6f74206560008201527f7869737400000000000000000000000000000000000000000000000000000000602082015250565b7f6e667420636f6e7472616374206e6f7420616c6c6f7765640000000000000000600082015250565b7f496e636f7272656374206f776e6572206f66207468652073616c650000000000600082015250565b7f796f757265206e6f7420746865206f776e6572206f662074686520746f6b656e600082015250565b7f6164647265737320646f6573206e6f7420657869737400000000000000000000600082015250565b7f4f776e61626c653a2063616c6c6572206973206e6f7420746865206f776e6572600082015250565b50565b7f6e6f7420656e6f75676820657468657200000000000000000000000000000000600082015250565b611d2881611a05565b8114611d3357600080fd5b50565b611d3f81611a6f565b8114611d4a57600080fd5b5056fea2646970667358221220d42f1b41a4652fa28e2318f6db85bb1e4fde5a707d4690ce728ce34cf654b77564736f6c63430008060033",
  "immutableReferences": {},
  "source": "// SPDX-License-Identifier: MIT\r\npragma solidity ^0.8.2;\r\n\r\nimport \"@openzeppelin/contracts/token/ERC721/ERC721.sol\";\r\nimport \"@openzeppelin/contracts/token/ERC721/extensions/ERC721URIStorage.sol\";\r\nimport \"@openzeppelin/contracts/access/Ownable.sol\";\r\nimport \"@openzeppelin/contracts/utils/Counters.sol\";\r\n// nftReceiver\r\nimport \"@openzeppelin/contracts/token/ERC721/IERC721Receiver.sol\";\r\n\r\n\r\ncontract Ismatoken is ERC721, ERC721URIStorage, Ownable {\r\n    using Counters for Counters.Counter;\r\n\r\n    Counters.Counter private _tokenIdCounter;\r\n\r\n    constructor() ERC721(\"ismatoken\", \"isma\") {\r\n    //   safeMint(msg.sender, 'https://picsum.photos/400');\r\n    //   safeMint(msg.sender, 'https://picsum.photos/400');\r\n    //   safeMint(msg.sender, 'https://picsum.photos/400');\r\n    //   safeMint(msg.sender, 'https://picsum.photos/400');\r\n    //   safeMint(msg.sender, 'https://picsum.photos/400');\r\n    //   safeMint(msg.sender, 'https://picsum.photos/400');\r\n    //   safeMint(msg.sender, 'https://picsum.photos/400');\r\n    //   safeMint(msg.sender, 'https://picsum.photos/400');\r\n    //   safeMint(msg.sender, 'https://picsum.photos/400');\r\n    //   safeMint(msg.sender, 'https://picsum.photos/400');\r\n    //   safeMint(msg.sender, 'https://picsum.photos/400');\r\n    }\r\n\r\n    function safeMint(address to, string memory uri) public onlyOwner {\r\n        uint256 tokenId = _tokenIdCounter.current();\r\n        _tokenIdCounter.increment();\r\n        _safeMint(to, tokenId);\r\n        _setTokenURI(tokenId, uri);\r\n    }\r\n    \r\n    // custom\r\n    \r\n    function totalMinted() public view returns(uint total){\r\n        total = _tokenIdCounter.current();\r\n    }\r\n\r\n    // The following functions are overrides required by Solidity.\r\n\r\n    function _burn(uint256 tokenId) internal override(ERC721, ERC721URIStorage) {\r\n        super._burn(tokenId);\r\n    }\r\n\r\n    function tokenURI(uint256 tokenId)\r\n        public\r\n        view\r\n        override(ERC721, ERC721URIStorage)\r\n        returns (string memory)\r\n    {\r\n        return super.tokenURI(tokenId);\r\n    }\r\n}\r\n\r\n\r\ncontract Market is IERC721Receiver, Ownable {\r\n    using Counters for Counters.Counter;\r\n    \r\n    function onERC721Received(address, address, uint256, bytes memory) public virtual override returns(bytes4){\r\n        return this.onERC721Received.selector;\r\n    }\r\n    \r\n    struct Sale {\r\n        uint price;\r\n        uint tokenId;\r\n        address seller;\r\n        address buyer;\r\n        address nftAddress;\r\n        bool active;\r\n    }\r\n    \r\n    event ContractAllowed(address indexed nftAddress, address indexed by);\r\n    event ContractDisallowed(address indexed nftAddress, address indexed by);\r\n\r\n    event SaleCreated(uint saleId, address indexed seller, uint price, address indexed nftAddress);\r\n    event ItemBought(uint saleId, address indexed seller, address indexed buyer, address indexed nftAddress ,uint price);\r\n    event SaleCanceled(uint saleId, address indexed by);\r\n\r\n    Counters.Counter private salesCounter;\r\n    \r\n    mapping(uint=>Sale) public sales;\r\n\r\n    mapping(address=>bool) private allowed_contracts;\r\n    \r\n    constructor (address[] memory _allowed_contracts){\r\n        for(uint i=0;i<_allowed_contracts.length;i++){\r\n            address _addr = _allowed_contracts[i];\r\n            allowed_contracts[_addr]=true;\r\n        }\r\n    }\r\n    \r\n    function addAllowedContract(address _addr) public onlyOwner {\r\n        bool exists = allowed_contracts[_addr];\r\n        require(!exists,'contract already added');\r\n        allowed_contracts[_addr]=true;\r\n\r\n        emit ContractAllowed(_addr, msg.sender);\r\n    }\r\n    function removeAllowedContract(address _addr) public onlyOwner{\r\n        bool exists = allowed_contracts[_addr];\r\n        require(exists,'address does not exist');\r\n        allowed_contracts[_addr]=false;\r\n\r\n        emit ContractDisallowed(_addr, msg.sender);\r\n    }\r\n    \r\n    function createSale(uint _price, uint _tokenId, address _nftContract) public onlyOwner {\r\n        require(allowed_contracts[_nftContract],'nft contract not allowed');\r\n        require(_price > 0, 'price must be greater than 0');\r\n        address tokenIdOwner = IERC721(_nftContract).ownerOf(_tokenId);\r\n        require(tokenIdOwner == msg.sender, 'youre not the owner of the token');\r\n        Sale memory new_sale = Sale(_price, _tokenId, msg.sender ,address(0), _nftContract, true);\r\n        \r\n        uint index = salesCounter.current();\r\n \r\n        sales[index] = new_sale;\r\n        salesCounter.increment();\r\n        IERC721(_nftContract).safeTransferFrom(msg.sender,address(this),_tokenId);\r\n\r\n        emit SaleCreated(index, msg.sender, _price, _nftContract);\r\n    }\r\n\r\n    function cancelSale(uint _saleId) public{\r\n        Sale storage sale = sales[_saleId];\r\n        require(msg.sender == sale.seller, 'Incorrect owner of the sale');\r\n        sale.active = false;\r\n        IERC721(sale.nftAddress).safeTransferFrom(address(this),sale.seller,sale.tokenId);\r\n        emit SaleCanceled(_saleId, msg.sender);\r\n    }\r\n    \r\n    function buy(uint saleIndex) public payable{\r\n        Sale storage sale = sales[saleIndex];\r\n        bool _isActive = sale.active;\r\n        uint _price = sale.price;\r\n        address _nftContract = sale.nftAddress;\r\n        address _seller =  sale.seller;\r\n        uint id = sale.tokenId;\r\n        \r\n        require(_isActive,'sale is not active or does not exist');\r\n        require(msg.value == _price, 'not enough ether');\r\n        \r\n        (bool sent, ) = payable(_seller).call{value: msg.value}(\"\");\r\n        require(sent, \"Failed to send Ether\");\r\n        \r\n        sale.active = false;\r\n        sale.buyer = msg.sender;\r\n        IERC721(_nftContract).safeTransferFrom(address(this),msg.sender,id);\r\n\r\n        emit ItemBought(saleIndex, _seller, msg.sender, _nftContract , _price );        \r\n    }\r\n    \r\n\r\n    function getTotalSales() public view returns(uint){\r\n        return salesCounter.current();\r\n    }\r\n    \r\n}\r\n\r\n",
  "sourcePath": "D:/00-Mundo Digital/codigo/Learning/Javascript/reactiu/web3learn/contracts/nft.sol",
  "compiler": {
    "name": "solc",
    "version": "0.8.6+commit.11564f7e.Emscripten.clang"
  },
  "schemaVersion": "3.4.1",
  "updatedAt": "2021-12-03T18:30:36.411Z",
  "networkType": "ethereum",
  "devdoc": {
    "kind": "dev",
    "methods": {
      "owner()": {
        "details": "Returns the address of the current owner."
      },
      "renounceOwnership()": {
        "details": "Leaves the contract without owner. It will not be possible to call `onlyOwner` functions anymore. Can only be called by the current owner. NOTE: Renouncing ownership will leave the contract without an owner, thereby removing any functionality that is only available to the owner."
      },
      "transferOwnership(address)": {
        "details": "Transfers ownership of the contract to a new account (`newOwner`). Can only be called by the current owner."
      }
    },
    "version": 1
  },
  "userdoc": {
    "kind": "user",
    "methods": {},
    "version": 1
  }
}