{
  "contractName": "Market",
  "abi": [
    {
      "inputs": [],
      "stateMutability": "nonpayable",
      "type": "constructor"
    },
    {
      "anonymous": false,
      "inputs": [
        {
          "indexed": true,
          "internalType": "address",
          "name": "nftAddress",
          "type": "address"
        },
        {
          "indexed": true,
          "internalType": "address",
          "name": "by",
          "type": "address"
        }
      ],
      "name": "ContractBlacklisted",
      "type": "event"
    },
    {
      "anonymous": false,
      "inputs": [
        {
          "indexed": true,
          "internalType": "address",
          "name": "nftAddress",
          "type": "address"
        },
        {
          "indexed": true,
          "internalType": "address",
          "name": "by",
          "type": "address"
        }
      ],
      "name": "ContractWhitelisted",
      "type": "event"
    },
    {
      "anonymous": false,
      "inputs": [
        {
          "indexed": false,
          "internalType": "uint256",
          "name": "saleId",
          "type": "uint256"
        },
        {
          "indexed": true,
          "internalType": "address",
          "name": "seller",
          "type": "address"
        },
        {
          "indexed": true,
          "internalType": "address",
          "name": "buyer",
          "type": "address"
        },
        {
          "indexed": true,
          "internalType": "address",
          "name": "nftAddress",
          "type": "address"
        },
        {
          "indexed": false,
          "internalType": "uint256",
          "name": "price",
          "type": "uint256"
        }
      ],
      "name": "ItemBought",
      "type": "event"
    },
    {
      "anonymous": false,
      "inputs": [
        {
          "indexed": true,
          "internalType": "address",
          "name": "previousOwner",
          "type": "address"
        },
        {
          "indexed": true,
          "internalType": "address",
          "name": "newOwner",
          "type": "address"
        }
      ],
      "name": "OwnershipTransferred",
      "type": "event"
    },
    {
      "anonymous": false,
      "inputs": [
        {
          "indexed": false,
          "internalType": "uint256",
          "name": "saleId",
          "type": "uint256"
        },
        {
          "indexed": true,
          "internalType": "address",
          "name": "by",
          "type": "address"
        }
      ],
      "name": "SaleCanceled",
      "type": "event"
    },
    {
      "anonymous": false,
      "inputs": [
        {
          "indexed": false,
          "internalType": "uint256",
          "name": "saleId",
          "type": "uint256"
        },
        {
          "indexed": true,
          "internalType": "address",
          "name": "seller",
          "type": "address"
        },
        {
          "indexed": false,
          "internalType": "uint256",
          "name": "price",
          "type": "uint256"
        },
        {
          "indexed": true,
          "internalType": "address",
          "name": "nftAddress",
          "type": "address"
        }
      ],
      "name": "SaleCreated",
      "type": "event"
    },
    {
      "inputs": [],
      "name": "owner",
      "outputs": [
        {
          "internalType": "address",
          "name": "",
          "type": "address"
        }
      ],
      "stateMutability": "view",
      "type": "function",
      "constant": true
    },
    {
      "inputs": [],
      "name": "renounceOwnership",
      "outputs": [],
      "stateMutability": "nonpayable",
      "type": "function"
    },
    {
      "inputs": [
        {
          "internalType": "uint256",
          "name": "",
          "type": "uint256"
        }
      ],
      "name": "sales",
      "outputs": [
        {
          "internalType": "uint256",
          "name": "price",
          "type": "uint256"
        },
        {
          "internalType": "uint256",
          "name": "tokenId",
          "type": "uint256"
        },
        {
          "internalType": "address",
          "name": "seller",
          "type": "address"
        },
        {
          "internalType": "address",
          "name": "buyer",
          "type": "address"
        },
        {
          "internalType": "address",
          "name": "nftAddress",
          "type": "address"
        },
        {
          "internalType": "bool",
          "name": "active",
          "type": "bool"
        }
      ],
      "stateMutability": "view",
      "type": "function",
      "constant": true
    },
    {
      "inputs": [
        {
          "internalType": "address",
          "name": "newOwner",
          "type": "address"
        }
      ],
      "name": "transferOwnership",
      "outputs": [],
      "stateMutability": "nonpayable",
      "type": "function"
    },
    {
      "inputs": [
        {
          "internalType": "address",
          "name": "",
          "type": "address"
        },
        {
          "internalType": "address",
          "name": "",
          "type": "address"
        },
        {
          "internalType": "uint256",
          "name": "",
          "type": "uint256"
        },
        {
          "internalType": "bytes",
          "name": "",
          "type": "bytes"
        }
      ],
      "name": "onERC721Received",
      "outputs": [
        {
          "internalType": "bytes4",
          "name": "",
          "type": "bytes4"
        }
      ],
      "stateMutability": "nonpayable",
      "type": "function"
    },
    {
      "inputs": [
        {
          "internalType": "address",
          "name": "_addr",
          "type": "address"
        }
      ],
      "name": "addBlacklistedContract",
      "outputs": [],
      "stateMutability": "nonpayable",
      "type": "function"
    },
    {
      "inputs": [
        {
          "internalType": "address",
          "name": "_addr",
          "type": "address"
        }
      ],
      "name": "removeBlacklistedContract",
      "outputs": [],
      "stateMutability": "nonpayable",
      "type": "function"
    },
    {
      "inputs": [
        {
          "internalType": "uint256",
          "name": "_price",
          "type": "uint256"
        },
        {
          "internalType": "uint256",
          "name": "_tokenId",
          "type": "uint256"
        },
        {
          "internalType": "address",
          "name": "_nftContract",
          "type": "address"
        }
      ],
      "name": "createSale",
      "outputs": [],
      "stateMutability": "nonpayable",
      "type": "function"
    },
    {
      "inputs": [
        {
          "internalType": "uint256",
          "name": "_saleId",
          "type": "uint256"
        }
      ],
      "name": "cancelSale",
      "outputs": [],
      "stateMutability": "nonpayable",
      "type": "function"
    },
    {
      "inputs": [
        {
          "internalType": "uint256",
          "name": "saleIndex",
          "type": "uint256"
        }
      ],
      "name": "buy",
      "outputs": [],
      "stateMutability": "payable",
      "type": "function",
      "payable": true
    },
    {
      "inputs": [],
      "name": "getTotalSales",
      "outputs": [
        {
          "internalType": "uint256",
          "name": "",
          "type": "uint256"
        }
      ],
      "stateMutability": "view",
      "type": "function",
      "constant": true
    }
  ],
  "bytecode": "0x608060405234801561001057600080fd5b5061002d61002261003260201b60201c565b61003a60201b60201c565b6100fe565b600033905090565b60008060009054906101000a900473ffffffffffffffffffffffffffffffffffffffff169050816000806101000a81548173ffffffffffffffffffffffffffffffffffffffff021916908373ffffffffffffffffffffffffffffffffffffffff1602179055508173ffffffffffffffffffffffffffffffffffffffff168173ffffffffffffffffffffffffffffffffffffffff167f8be0079c531659141344cd1fd0a4f28419497f9722a3daafe3b4186f6b6457e060405160405180910390a35050565b611c0f8061010d6000396000f3fe60806040526004361061009c5760003560e01c80638da5cb5b116100645780638da5cb5b14610172578063995cd6531461019d578063b5f522f7146101c6578063bd94b00514610208578063d96a094a14610231578063f2fde38b1461024d5761009c565b806302565084146100a1578063150b7a02146100ca5780632156a96c146101075780632aa46a3114610132578063715018a61461015b575b600080fd5b3480156100ad57600080fd5b506100c860048036038101906100c391906112c7565b610276565b005b3480156100d657600080fd5b506100f160048036038101906100ec9190611321565b610439565b6040516100fe9190611648565b60405180910390f35b34801561011357600080fd5b5061011c61044d565b60405161012991906117a3565b60405180910390f35b34801561013e57600080fd5b50610159600480360381019061015491906112c7565b61045e565b005b34801561016757600080fd5b50610170610622565b005b34801561017e57600080fd5b506101876106aa565b60405161019491906115f6565b60405180910390f35b3480156101a957600080fd5b506101c460048036038101906101bf91906113d1565b6106d3565b005b3480156101d257600080fd5b506101ed60048036038101906101e891906113a4565b610a9e565b6040516101ff969594939291906117e7565b60405180910390f35b34801561021457600080fd5b5061022f600480360381019061022a91906113a4565b610b47565b005b61024b600480360381019061024691906113a4565b610d1a565b005b34801561025957600080fd5b50610274600480360381019061026f91906112c7565b611030565b005b61027e611128565b73ffffffffffffffffffffffffffffffffffffffff1661029c6106aa565b73ffffffffffffffffffffffffffffffffffffffff16146102f2576040517f08c379a00000000000000000000000000000000000000000000000000000000081526004016102e990611763565b60405180910390fd5b6000600360008373ffffffffffffffffffffffffffffffffffffffff1673ffffffffffffffffffffffffffffffffffffffff16815260200190815260200160002060009054906101000a900460ff16905080610383576040517f08c379a000000000000000000000000000000000000000000000000000000000815260040161037a90611743565b60405180910390fd5b6000600360008473ffffffffffffffffffffffffffffffffffffffff1673ffffffffffffffffffffffffffffffffffffffff16815260200190815260200160002060006101000a81548160ff0219169083151502179055503373ffffffffffffffffffffffffffffffffffffffff168273ffffffffffffffffffffffffffffffffffffffff167fd5885034f191555390b2a9935e59060c37127eef104dfb5ffec0823b6b2f2f4760405160405180910390a35050565b600063150b7a0260e01b9050949350505050565b60006104596001611130565b905090565b610466611128565b73ffffffffffffffffffffffffffffffffffffffff166104846106aa565b73ffffffffffffffffffffffffffffffffffffffff16146104da576040517f08c379a00000000000000000000000000000000000000000000000000000000081526004016104d190611763565b60405180910390fd5b6000600360008373ffffffffffffffffffffffffffffffffffffffff1673ffffffffffffffffffffffffffffffffffffffff16815260200190815260200160002060009054906101000a900460ff169050801561056c576040517f08c379a0000000000000000000000000000000000000000000000000000000008152600401610563906116a3565b60405180910390fd5b6001600360008473ffffffffffffffffffffffffffffffffffffffff1673ffffffffffffffffffffffffffffffffffffffff16815260200190815260200160002060006101000a81548160ff0219169083151502179055503373ffffffffffffffffffffffffffffffffffffffff168273ffffffffffffffffffffffffffffffffffffffff167f5127f23a04a89bff863fde8f7d2939cc417475cc0370603af472465108d5975a60405160405180910390a35050565b61062a611128565b73ffffffffffffffffffffffffffffffffffffffff166106486106aa565b73ffffffffffffffffffffffffffffffffffffffff161461069e576040517f08c379a000000000000000000000000000000000000000000000000000000000815260040161069590611763565b60405180910390fd5b6106a8600061113e565b565b60008060009054906101000a900473ffffffffffffffffffffffffffffffffffffffff16905090565b60008311610716576040517f08c379a000000000000000000000000000000000000000000000000000000000815260040161070d90611683565b60405180910390fd5b60008173ffffffffffffffffffffffffffffffffffffffff16636352211e846040518263ffffffff1660e01b815260040161075191906117a3565b60206040518083038186803b15801561076957600080fd5b505afa15801561077d573d6000803e3d6000fd5b505050506040513d601f19601f820116820180604052508101906107a191906112f4565b90503373ffffffffffffffffffffffffffffffffffffffff168173ffffffffffffffffffffffffffffffffffffffff1614610811576040517f08c379a000000000000000000000000000000000000000000000000000000000815260040161080890611723565b60405180910390fd5b60006040518060c001604052808681526020018581526020013373ffffffffffffffffffffffffffffffffffffffff168152602001600073ffffffffffffffffffffffffffffffffffffffff1681526020018473ffffffffffffffffffffffffffffffffffffffff16815260200160011515815250905060006108946001611130565b90508160026000838152602001908152602001600020600082015181600001556020820151816001015560408201518160020160006101000a81548173ffffffffffffffffffffffffffffffffffffffff021916908373ffffffffffffffffffffffffffffffffffffffff16021790555060608201518160030160006101000a81548173ffffffffffffffffffffffffffffffffffffffff021916908373ffffffffffffffffffffffffffffffffffffffff16021790555060808201518160040160006101000a81548173ffffffffffffffffffffffffffffffffffffffff021916908373ffffffffffffffffffffffffffffffffffffffff16021790555060a08201518160040160146101000a81548160ff0219169083151502179055509050506109c06001611202565b8373ffffffffffffffffffffffffffffffffffffffff166342842e0e3330886040518463ffffffff1660e01b81526004016109fd93929190611611565b600060405180830381600087803b158015610a1757600080fd5b505af1158015610a2b573d6000803e3d6000fd5b505050508373ffffffffffffffffffffffffffffffffffffffff163373ffffffffffffffffffffffffffffffffffffffff167f14febeee90749ea75be511a1a652e90800dfb99c11d251bb71940520180b58798389604051610a8e9291906117be565b60405180910390a3505050505050565b60026020528060005260406000206000915090508060000154908060010154908060020160009054906101000a900473ffffffffffffffffffffffffffffffffffffffff16908060030160009054906101000a900473ffffffffffffffffffffffffffffffffffffffff16908060040160009054906101000a900473ffffffffffffffffffffffffffffffffffffffff16908060040160149054906101000a900460ff16905086565b60006002600083815260200190815260200160002090508060020160009054906101000a900473ffffffffffffffffffffffffffffffffffffffff1673ffffffffffffffffffffffffffffffffffffffff163373ffffffffffffffffffffffffffffffffffffffff1614610bf0576040517f08c379a0000000000000000000000000000000000000000000000000000000008152600401610be790611703565b60405180910390fd5b60008160040160146101000a81548160ff0219169083151502179055508060040160009054906101000a900473ffffffffffffffffffffffffffffffffffffffff1673ffffffffffffffffffffffffffffffffffffffff166342842e0e308360020160009054906101000a900473ffffffffffffffffffffffffffffffffffffffff1684600101546040518463ffffffff1660e01b8152600401610c9693929190611611565b600060405180830381600087803b158015610cb057600080fd5b505af1158015610cc4573d6000803e3d6000fd5b505050503373ffffffffffffffffffffffffffffffffffffffff167fc17a2000b952093a1b49de547dc3416f2a96f6d78da5b597d5ee0272b6be70e983604051610d0e91906117a3565b60405180910390a25050565b600060026000838152602001908152602001600020905060008160040160149054906101000a900460ff16905060008260000154905060008360040160009054906101000a900473ffffffffffffffffffffffffffffffffffffffff16905060008460020160009054906101000a900473ffffffffffffffffffffffffffffffffffffffff16905060008560010154905084610deb576040517f08c379a0000000000000000000000000000000000000000000000000000000008152600401610de2906116e3565b60405180910390fd5b833414610e2d576040517f08c379a0000000000000000000000000000000000000000000000000000000008152600401610e2490611783565b60405180910390fd5b60008273ffffffffffffffffffffffffffffffffffffffff1634604051610e53906115e1565b60006040518083038185875af1925050503d8060008114610e90576040519150601f19603f3d011682016040523d82523d6000602084013e610e95565b606091505b5050905080610ed9576040517f08c379a0000000000000000000000000000000000000000000000000000000008152600401610ed0906116c3565b60405180910390fd5b60008760040160146101000a81548160ff021916908315150217905550338760030160006101000a81548173ffffffffffffffffffffffffffffffffffffffff021916908373ffffffffffffffffffffffffffffffffffffffff1602179055508373ffffffffffffffffffffffffffffffffffffffff166342842e0e3033856040518463ffffffff1660e01b8152600401610f7693929190611611565b600060405180830381600087803b158015610f9057600080fd5b505af1158015610fa4573d6000803e3d6000fd5b505050508373ffffffffffffffffffffffffffffffffffffffff163373ffffffffffffffffffffffffffffffffffffffff168473ffffffffffffffffffffffffffffffffffffffff167f4e3f9e8b693e9974db110dc1d49a290392bd65c559ee233d196e9f41ec6f3c1e8b8960405161101e9291906117be565b60405180910390a45050505050505050565b611038611128565b73ffffffffffffffffffffffffffffffffffffffff166110566106aa565b73ffffffffffffffffffffffffffffffffffffffff16146110ac576040517f08c379a00000000000000000000000000000000000000000000000000000000081526004016110a390611763565b60405180910390fd5b600073ffffffffffffffffffffffffffffffffffffffff168173ffffffffffffffffffffffffffffffffffffffff16141561111c576040517f08c379a000000000000000000000000000000000000000000000000000000000815260040161111390611663565b60405180910390fd5b6111258161113e565b50565b600033905090565b600081600001549050919050565b60008060009054906101000a900473ffffffffffffffffffffffffffffffffffffffff169050816000806101000a81548173ffffffffffffffffffffffffffffffffffffffff021916908373ffffffffffffffffffffffffffffffffffffffff1602179055508173ffffffffffffffffffffffffffffffffffffffff168173ffffffffffffffffffffffffffffffffffffffff167f8be0079c531659141344cd1fd0a4f28419497f9722a3daafe3b4186f6b6457e060405160405180910390a35050565b6001816000016000828254019250508190555050565b600061122b6112268461186d565b611848565b905082815260208101848484011115611247576112466119a2565b5b61125284828561192e565b509392505050565b60008135905061126981611bab565b92915050565b60008151905061127e81611bab565b92915050565b600082601f8301126112995761129861199d565b5b81356112a9848260208601611218565b91505092915050565b6000813590506112c181611bc2565b92915050565b6000602082840312156112dd576112dc6119ac565b5b60006112eb8482850161125a565b91505092915050565b60006020828403121561130a576113096119ac565b5b60006113188482850161126f565b91505092915050565b6000806000806080858703121561133b5761133a6119ac565b5b60006113498782880161125a565b945050602061135a8782880161125a565b935050604061136b878288016112b2565b925050606085013567ffffffffffffffff81111561138c5761138b6119a7565b5b61139887828801611284565b91505092959194509250565b6000602082840312156113ba576113b96119ac565b5b60006113c8848285016112b2565b91505092915050565b6000806000606084860312156113ea576113e96119ac565b5b60006113f8868287016112b2565b9350506020611409868287016112b2565b925050604061141a8682870161125a565b9150509250925092565b61142d816118ba565b82525050565b61143c816118cc565b82525050565b61144b816118d8565b82525050565b600061145e6026836118a9565b9150611469826119c2565b604082019050919050565b6000611481601c836118a9565b915061148c82611a11565b602082019050919050565b60006114a46016836118a9565b91506114af82611a3a565b602082019050919050565b60006114c76014836118a9565b91506114d282611a63565b602082019050919050565b60006114ea6024836118a9565b91506114f582611a8c565b604082019050919050565b600061150d601b836118a9565b915061151882611adb565b602082019050919050565b60006115306020836118a9565b915061153b82611b04565b602082019050919050565b60006115536016836118a9565b915061155e82611b2d565b602082019050919050565b60006115766020836118a9565b915061158182611b56565b602082019050919050565b600061159960008361189e565b91506115a482611b7f565b600082019050919050565b60006115bc6010836118a9565b91506115c782611b82565b602082019050919050565b6115db81611924565b82525050565b60006115ec8261158c565b9150819050919050565b600060208201905061160b6000830184611424565b92915050565b60006060820190506116266000830186611424565b6116336020830185611424565b61164060408301846115d2565b949350505050565b600060208201905061165d6000830184611442565b92915050565b6000602082019050818103600083015261167c81611451565b9050919050565b6000602082019050818103600083015261169c81611474565b9050919050565b600060208201905081810360008301526116bc81611497565b9050919050565b600060208201905081810360008301526116dc816114ba565b9050919050565b600060208201905081810360008301526116fc816114dd565b9050919050565b6000602082019050818103600083015261171c81611500565b9050919050565b6000602082019050818103600083015261173c81611523565b9050919050565b6000602082019050818103600083015261175c81611546565b9050919050565b6000602082019050818103600083015261177c81611569565b9050919050565b6000602082019050818103600083015261179c816115af565b9050919050565b60006020820190506117b860008301846115d2565b92915050565b60006040820190506117d360008301856115d2565b6117e060208301846115d2565b9392505050565b600060c0820190506117fc60008301896115d2565b61180960208301886115d2565b6118166040830187611424565b6118236060830186611424565b6118306080830185611424565b61183d60a0830184611433565b979650505050505050565b6000611852611863565b905061185e828261193d565b919050565b6000604051905090565b600067ffffffffffffffff8211156118885761188761196e565b5b611891826119b1565b9050602081019050919050565b600081905092915050565b600082825260208201905092915050565b60006118c582611904565b9050919050565b60008115159050919050565b60007fffffffff0000000000000000000000000000000000000000000000000000000082169050919050565b600073ffffffffffffffffffffffffffffffffffffffff82169050919050565b6000819050919050565b82818337600083830152505050565b611946826119b1565b810181811067ffffffffffffffff821117156119655761196461196e565b5b80604052505050565b7f4e487b7100000000000000000000000000000000000000000000000000000000600052604160045260246000fd5b600080fd5b600080fd5b600080fd5b600080fd5b6000601f19601f8301169050919050565b7f4f776e61626c653a206e6577206f776e657220697320746865207a65726f206160008201527f6464726573730000000000000000000000000000000000000000000000000000602082015250565b7f7072696365206d7573742062652067726561746572207468616e203000000000600082015250565b7f636f6e747261637420616c726561647920616464656400000000000000000000600082015250565b7f4661696c656420746f2073656e64204574686572000000000000000000000000600082015250565b7f73616c65206973206e6f7420616374697665206f7220646f6573206e6f74206560008201527f7869737400000000000000000000000000000000000000000000000000000000602082015250565b7f496e636f7272656374206f776e6572206f66207468652073616c650000000000600082015250565b7f796f757265206e6f7420746865206f776e6572206f662074686520746f6b656e600082015250565b7f6164647265737320646f6573206e6f7420657869737400000000000000000000600082015250565b7f4f776e61626c653a2063616c6c6572206973206e6f7420746865206f776e6572600082015250565b50565b7f6e6f7420656e6f75676820657468657200000000000000000000000000000000600082015250565b611bb4816118ba565b8114611bbf57600080fd5b50565b611bcb81611924565b8114611bd657600080fd5b5056fea2646970667358221220ed29f62045c9abf8c8964b620ccd4960c3cec89b880d5ecce0c1eaa38793570d64736f6c63430008060033",
  "immutableReferences": {},
  "source": "// SPDX-License-Identifier: MIT\r\npragma solidity ^0.8.2;\r\n\r\nimport \"@openzeppelin/contracts/token/ERC721/ERC721.sol\";\r\nimport \"@openzeppelin/contracts/access/Ownable.sol\";\r\nimport \"@openzeppelin/contracts/utils/Counters.sol\";\r\n// nftReceiver\r\nimport \"@openzeppelin/contracts/token/ERC721/IERC721Receiver.sol\";\r\n\r\n\r\ncontract Market is IERC721Receiver, Ownable {\r\n    using Counters for Counters.Counter;\r\n    \r\n    function onERC721Received(address, address, uint256, bytes memory) public virtual override returns(bytes4){\r\n        return this.onERC721Received.selector;\r\n    }\r\n    \r\n    struct Sale {\r\n        uint price;\r\n        uint tokenId;\r\n        address seller;\r\n        address buyer;\r\n        address nftAddress;\r\n        bool active;\r\n    }\r\n    \r\n    event ContractWhitelisted(address indexed nftAddress, address indexed by);\r\n    event ContractBlacklisted(address indexed nftAddress, address indexed by);\r\n\r\n    event SaleCreated(uint saleId, address indexed seller, uint price, address indexed nftAddress);\r\n    event ItemBought(uint saleId, address indexed seller, address indexed buyer, address indexed nftAddress ,uint price);\r\n    event SaleCanceled(uint saleId, address indexed by);\r\n\r\n    Counters.Counter private salesCounter;\r\n    \r\n    mapping(uint=>Sale) public sales;\r\n\r\n    mapping(address=>bool) private blacklisted_contracts;\r\n    \r\n    constructor (){\r\n        // for(uint i=0;i<_allowed_contracts.length;i++){\r\n        //     address _addr = _allowed_contracts[i];\r\n        //     allowed_contracts[_addr]=true;\r\n        // }\r\n    }\r\n    \r\n    function addBlacklistedContract(address _addr) public onlyOwner {\r\n        bool exists = blacklisted_contracts[_addr];\r\n        require(!exists,'contract already added');\r\n        blacklisted_contracts[_addr]=true;\r\n        emit ContractBlacklisted(_addr, msg.sender);\r\n    }\r\n    function removeBlacklistedContract(address _addr) public onlyOwner{\r\n        bool exists = blacklisted_contracts[_addr];\r\n        require(exists,'address does not exist');\r\n        blacklisted_contracts[_addr]=false;\r\n        emit ContractWhitelisted(_addr, msg.sender);\r\n    }\r\n    \r\n    function createSale(uint _price, uint _tokenId, address _nftContract) public{\r\n        //require(allowed_contracts[_nftContract],'nft contract not allowed');\r\n        require(_price > 0, 'price must be greater than 0');\r\n        address tokenIdOwner = IERC721(_nftContract).ownerOf(_tokenId);\r\n        require(tokenIdOwner == msg.sender, 'youre not the owner of the token');\r\n        Sale memory new_sale = Sale(_price, _tokenId, msg.sender ,address(0), _nftContract, true);\r\n        \r\n        uint index = salesCounter.current();\r\n \r\n        sales[index] = new_sale;\r\n        salesCounter.increment();\r\n        IERC721(_nftContract).safeTransferFrom(msg.sender,address(this),_tokenId);\r\n\r\n        emit SaleCreated(index, msg.sender, _price, _nftContract);\r\n    }\r\n\r\n    function cancelSale(uint _saleId) public{\r\n        Sale storage sale = sales[_saleId];\r\n        require(msg.sender == sale.seller, 'Incorrect owner of the sale');\r\n        sale.active = false;\r\n        IERC721(sale.nftAddress).safeTransferFrom(address(this),sale.seller,sale.tokenId);\r\n        emit SaleCanceled(_saleId, msg.sender);\r\n    }\r\n    \r\n    function buy(uint saleIndex) public payable{\r\n        Sale storage sale = sales[saleIndex];\r\n        bool _isActive = sale.active;\r\n        uint _price = sale.price;\r\n        address _nftContract = sale.nftAddress;\r\n        address _seller =  sale.seller;\r\n        uint id = sale.tokenId;\r\n        \r\n        require(_isActive,'sale is not active or does not exist');\r\n        require(msg.value == _price, 'not enough ether');\r\n        \r\n        (bool sent, ) = payable(_seller).call{value: msg.value}(\"\");\r\n        require(sent, \"Failed to send Ether\");\r\n        \r\n        sale.active = false;\r\n        sale.buyer = msg.sender;\r\n        IERC721(_nftContract).safeTransferFrom(address(this),msg.sender,id);\r\n\r\n        emit ItemBought(saleIndex, _seller, msg.sender, _nftContract , _price );        \r\n    }\r\n    \r\n\r\n    function getTotalSales() public view returns(uint){\r\n        return salesCounter.current();\r\n    }\r\n    \r\n}\r\n\r\n",
  "sourcePath": "D:/OneDrive - Universitat Oberta de Catalunya/00-HARD_ESTUDI/UOC/00-en curso/TFG/codigo/entrega/blockchain/contracts/Market.sol",
  "compiler": {
    "name": "solc",
    "version": "0.8.6+commit.11564f7e.Emscripten.clang"
  },
  "schemaVersion": "3.4.1",
  "updatedAt": "2021-12-12T18:07:04.756Z",
  "networkType": "ethereum",
  "devdoc": {
    "kind": "dev",
    "methods": {
      "owner()": {
        "details": "Returns the address of the current owner."
      },
      "renounceOwnership()": {
        "details": "Leaves the contract without owner. It will not be possible to call `onlyOwner` functions anymore. Can only be called by the current owner. NOTE: Renouncing ownership will leave the contract without an owner, thereby removing any functionality that is only available to the owner."
      },
      "transferOwnership(address)": {
        "details": "Transfers ownership of the contract to a new account (`newOwner`). Can only be called by the current owner."
      }
    },
    "version": 1
  },
  "userdoc": {
    "kind": "user",
    "methods": {},
    "version": 1
  }
}